S023000055534152545F515549434B5F53544152545F43414C4C4241434B312E73726563EC
S1130000B0200020051000000110000001100000C5
S113001000000000000000000000000000000000DC
S113002000000000000000000000000001100000BB
S1130030000000000000000001100000011000009A
S11300400110000001100000011000000110000068
S11300500110000001100000011000000110000058
S11300600110000091050000A1050000B105000089
S1130070C1050000D1050000E105000001100000E9
S11300800110000001100000011000000110000028
S11300900110000001100000011000000110000018
S11300A00110000001100000011000000110000008
S11300B010B5064C2378002B07D1054B002B02D03A
S11300C0044800E000BF0123237010BD0400002099
S11300D0000000000014000008B5084B002B03D0FA
S11300E00748084900E000BF07480368002B03D015
S11300F0064B002B00D0984708BDC0460000000006
S1130100001400000800002000140000000000009B
S1130110094B196800290BD1EFF31080074A002816
S113012005D172B6BFF35F8F0549087001211170C4
S11301301A6801321A607047200000202400002051
S113014000000020084B1A68013A1A601B68002B53
S113015009D1064B1B78002B05D0054B01221A70E0
S1130160BFF35F8F62B67047200000202400002098
S113017000000020F7B501AC01250027084E211C22
S11301803E206570A7702570B047064B8022D205CB
S11301901A600F20211C27706570B047F7BDC04658
S11301A0A90100009844004107B5802201AB1A70F0
S11301B00A785A704A789A708A78191CDA70014B56
S11301C0984707BDAD0F000010B549084024884288
S11301D00CD800235C1C091AA4B2814201D3231C4D
S11301E0F8E74024FF2B01D813800024201C10BD05
S11301F0F0B58BB01C1C10AB071C187807923A1C86
S113020042430D1C40238A4200D98FE0002C3DD18B
S1130210211C3A1C231C4A4EB047069000200021A2
S113022002950F1C0D1C3F210394061C041C059110
S1130230059A444B012000219847221C2B1C84461C
S1130240069812196B41141C1D1C084203D001228C
S11302502243141C1D1C039AAA420CD802D1029BEF
S1130260A34208D8604630433943029A039B061CD4
S1130270A41A9D410F1C059B013B0593D8D22F4B1B
S11302802D4A921BBB41160C1B044BE00026012C8B
S113029049D1490FED0008910995311C3A1C331CD2
S11302A0274CA04702900391F7B2069700270597C1
S11302B03F27002400250197019A224B01200021A9
S11302C09847099F221C0740BC46089F2B1C121903
S11302D06B4139406746141C1D1C394303D001226D
S11302E02243141C1D1C0399A9420AD802D1029A64
S11302F0A24206D8059F0299039A0743641A9541BE
S11303000597019F013F0197D6D2059F0E4ABB1B5B
S1130310DB08934204D90136082EC5D1402305E0F9
S1130320069F7E031E43079F00233E80181C0BB0CC
S1130330F0BDC046C046C0460000000001000000F9
S11303400D130000F5120000FF1F0000C046C04658
S113035037B50E4B041C1A781D1C002A01D0002945
S11303600CD001A913200A4B0C7098471320094B99
S1130370984701236C702B70002006E05A781D20EA
S1130380141B621E9441644220403EBD250000209F
S1130390D90E0000510E00003A4A031C00B5081C97
S11303A093422BD006D8384A93420DD0374A934211
S11303B017D057E0364A93423AD0364A934244D053
S11303C0354A93424ED126E00023032957D800F042
S11303D037FF024B0406314B51E0314B4FE0314BB8
S11303E04DE0002303294AD800F02AFF0240040606
S11303F0032344E02C4B42E02C4B40E00023032930
S11304003DD800F01DFF02350406294B37E0294B87
S113041035E0294B33E00023032930D800F010FFE6
S1130420022A0406254B2AE0254B28E0254B26E02A
S11304300023032923D800F003FF021F0406224BE4
S11304401DE0224B1BE0224B19E00023032916D8A0
S113045000F0F6FE021404061E4B10E01E4B0EE0E4
S11304601E4B0CE000230AE01D4B08E01D4B06E088
S11304701D4B04E01D4B02E01D4B00E01D4B181CFE
S113048000BDC0460010004200080042000C0042BB
S113049000180042001C0042001400420300040043
S11304A0030006000300070003001E0003001F00F2
S11304B00300080003000A0003000B0003001000FF
S11304C0030012000300130003000C0003000E00DD
S11304D003000F00030016000300180003001900B6
S11304E003000500030001000300090003001100DC
S11304F003000D000300170070B50A4986B06B466F
S113050070C970C36A4670C970C3002399005158FA
S1130510884201D1D8B203E00133062BF6D1002082
S113052006B070BDB01300007047000070B50A4AF1
S11305301378141C094A002B0AD1094D0026D55002
S1130540084D5D1904332E60182BF6D10123237056
S11305508000115070BDC0462700002028000020F4
S1130560290500005800002013B50622041C054983
S11305706846054B9847201C044B98476B46185611
S113058016BDC046C81300009D130000F904000006
S113059008B5024B00201B68984708BD28000020BE
S11305A008B5024B01205B68984708BD280000206D
S11305B008B5024B02209B68984708BD280000201C
S11305C008B5024B0320DB68984708BD28000020CB
S11305D008B5024B04201B69984708BD2800002079
S11305E008B5024B05205B69984708BD2800002028
S11305F00268D369002BFCD170470000F0B593B0BA
S113060001600691071C081CA149141C8847069A1E
S11306100521136801260391334200D035E11568A2
S113062002231C221D40039200D02EE1994B821C10
S1130630196A0391311C91400A1C03990A431A62F6
S1130640221C2D32049213780CA90B70031C143352
S1130650DBB2181C0393904B984703988F4B984731
S1130660049B291C18788E4B9847E37A39687B7170
S1130670631DDB7F081CBB71A31DDB7F844AFB71F8
S1130680E37E3B72237F05917B7290470EAB1D8006
S1130690238A1430049304998023DB01994212D0F5
S11306A006D880239B01994213D11022039213E0B0
S11306B0049AC023DB019A4208D080231B02032141
S11306C09A4207D005E00823039304E00823039328
S11306D002E01021039100262268E368616908930F
S11306E007920991227EE31D0A92DB7F62680B93D5
S11306F0231C0833002A10D0802149058A4224D1C2
S1130700DB7F002B21D1674BC0B2256A98470EAA24
S1130710011C654B281C984713E0DB7F256A002BDE
S113072004D0039B281C0093A16A06E0C0B25D4B71
S11307309847039A011C0092281C0EAA331C5B4D97
S1130740A8470390002800D09FE0637E002B02D0CE
S1130750A37E05998B73381C554EB0470EAB1B888E
S1130760059A089D9381079B09991D4362680D436F
S1130770049B0A9915430B9A1D430B021D4353070F
S11307801D43231C0833DB7F002B01D104231D43AD
S1130790667E237FB6025B021E43E27AA37A13438A
S11307A01E43637F22891B021E43631DDB7F5B04A0
S11307B01E43A31DDB7F1B041E43E37EFF2A09D0D7
S11307C0002B02D0A023DB0401E080235B041D4343
S11307D0164304E0002B02D08023DB041D43231CBA
S11307E02C331B78002B03D1324B9B78990701D50E
S11307F080231D432E4A381C9047059B2C495E607C
S1130800381C8847059A0023156000210DAD039319
S11308108023226B2B706970636BE970A970A16BE4
S1130820E46B0EAEF4600E927360B1600024A3001A
S1130830F058E1B2002802D106981F4B9847421C99
S113084005D02870000CC0B2291C1C4B98470134F9
S1130850042CECD13A1C00233032FB85FB603B6155
S11308607B61BB61FB613B62BB627B62BB85937056
S113087013705370D3703868054B9847104B114967
S1130880041C9847104BA400E750039813B0F0BD24
S1130890F904000000040040D90E0000510E0000CD
S11308A051030000F50E0000C9010000F101000031
S11308B0F10500000020004199030000AD0F000085
S11308C02D05000065090000580000208285021CE7
S11308D04162036832320521117004229A75027A4A
S11308E0002A01D020229A75427A002A01D00822D7
S11308F09A757047931C9B00C318596001233030CC
S113090093401A1C03781A430270704730B51723BA
S1130910002A11D0C48D0523A4B2002C0CD1C579B2
S11309201C23002D08D00368C28581620522333060
S1130930027001229A75231C181C30BD10B51723B0
S1130940002A0BD084791C23002C07D0848D052326
S1130950A4B2002C02D1024B9847231C181C10BDD2
S1130960CD080000F8B5574B8000C4582568EB69E2
S1130970002BFCD12F7EAB7D221C1F40231C313366
S113098030321B7816781E4001231F421ED0E28DA0
S1130990002A1AD0A36A591C1A78A1626179D2B2CA
S11309A0012904D15978023309020A43A362D2050A
S11309B0D20D2A85E38D013B9BB2E385002B05D143
S11309C001232B750223AB7500E02B7502231F4214
S11309D009D02B75231C002233331A70F10702D57A
S11309E0201CE268904704231F424CD0A28D002AA9
S11309F048D06B8B3F22DBB2190700D53722134056
S1130A001ED002221A2113420FD104221E211342A6
S1130A100BD101221321134207D110224221134288
S1130A2003D12022134206D04121231C32331970F2
S1130A306B8B1A436A83720725D5201C63691FE0F8
S1130A402A8D616AD205D20DD3B20B70636A591C28
S1130A5061626179012904D1120A5A70636A01330F
S1130A606362A38D013B9BB2A385002B0BD10422AF
S1130A702A75221C32321370B20704D52369201C54
S1130A80984700E02B7510231F4206D02B752B7658
S1130A901E4202D0201CE169884720231F4206D051
S1130AA02B752B76320702D5201CA369984708239F
S1130AB01F4206D02B752B76B10602D5236A201C63
S1130AC09847F8BD5800002010B5082832D800F027
S1130AD0B7FB0831310505130B16290080200002ED
S1130AE02BE0164B186928E0154B186A154B800546
S1130AF0800FC340181C20E0104B58691DE00F4CB8
S1130B0002232068184018D00D4BDB68DA06FBD5A9
S1130B1023685A0710D50C4B00209847A3689BB252
S1130B2058430AE0094B00201B785A0705D5034BAC
S1130B30D86802E0002000E0054810BD4000002015
S1130B400008004000127A00F50E00005008004032
S1130B50006CDC0270B50D4B45781E6A8178047810
S1130B600122402086431540AD01301C0A40284331
S1130B70D10180229043021C0A43054803212140ED
S1130B80090202400A431A6270BDC04600080040D0
S1130B90FFFCFFFF10B508283DD800F051FB113CC5
S1130BA03C340B17051D36001C4B02211A6A0A43FC
S1130BB01A6228E0194B02219A690A439A6122E0D9
S1130BC0164B02211A8A0A431A821CE0134B022193
S1130BD09A8A0A439A8216E0114B02211A680A4340
S1130BE01A601968802291430C4A89B29184101CBE
S1130BF0C1680A4ACC06FBD59968D16259689162EA
S1130C001B689BB29384002006E0064B02211A78ED
S1130C100A431A70F7E7172010BDC04600080040C9
S1130C2040000020440800407FB51A4BC222D20085
S1130C309A60194B1E215A6801AD8A435A600123F8
S1130C402B700024E0B2291C144B01349847252C46
S1130C50F8D100246B4601269E705C701C706846B7
S1130C600F4B98470F4B062098470F4B98470F4B55
S1130C70291C1C725C729C7206232B70201C0C4B6A
S1130C806E606C702C726C729847201C094B9847EC
S1130C907FBDC0460008004000400041D90E00005E
S1130CA0550B0000950B0000C50C0000000400402B
S1130CB0E50C0000890D0000014B5878C00970470D
S1130CC0000C0040054B08219A690A439A61044BC1
S1130CD001221A701A78D107FCD47047000400402E
S1130CE0000C0040F8B50C784B782402051C061C57
S1130CF00443002B02D08023DB021C434B7A002BDD
S1130D0002D080231B031C434B68012B13D95E1EA6
S1130D101E400222002E09D19A4202D2013652000C
S1130D20FAE7360280232E435B0303E01E0280238E
S1130D302E439B021C430B7A002B02D080239B037F
S1130D401C430C4FB8470028FBD10B4B98470B4B67
S1130D501D70B8470028FCD1094DAE60B847002883
S1130D60FCD16A6880235B0213401C436C60054B12
S1130D709847F8BDB90C000011010000080C0040B0
S1130D80000C00404501000038B5051C094CA04783
S1130D900028FBD1084B9847084B1D70A04700283A
S1130DA0FCD1074B8022596852020A435A60054B12
S1130DB0984738BDB90C000011010000040C004034
S1130DC0000C004045010000F7B5061C184FB84759
S1130DD00028FBD1174B9847174B1E70B8470028C3
S1130DE0FCD1164D164B6868C004C00E9847124BD0
S1130DF0041C1E706B68DB02DB0F0193114B1E7029
S1130E00B8470028FCD1AD680F4B9847019B2D0AC9
S1130E10ADB2002B07D1012D07D9201C291C0B4B87
S1130E209847041C01E00135EC40201CFEBDC0467F
S1130E30B90C000011010000040C0040000C00403B
S1130E40C90A0000080C00404501000055120000CA
S1130E5010B5074B041C9847064B80221C70064BA8
S1130E60D20159880A435A80044B984710BDC046A2
S1130E7011010000020C0040000C0040450100007C
S1130E8038B50F4B041C98470E4B0F4A1C700F4B80
S1130E90598858880905104058805C880C48090F07
S1130EA020405880101C5C88084A6504FBD4538891
S1130EB0090203400B435380064B984738BDC04694
S1130EC011010000020C0040FFF0FFFF000C004085
S1130ED0FFBFFFFF4501000010B50C78034B24024F
S1130EE004439847024BA4B25C8010BD810E0000FD
S1130EF0000C004010B5074B041C9847064B1C70AF
S1130F00064B5C88064B2405240F9847201C054B90
S1130F10984710BD11010000020C0040000C004075
S1130F2045010000C90D0000D37830B5002B1BD15A
S1130F301478802C03D0802324065B022343547846
S1130F400225AC4309D19478002C02D18024A40258
S1130F5001E0C024E402234341605478013C012CA5
S1130F6004D8114C234001E041600023A0248DB239
S1130F70E4052C431C438462D0240D0C24062C432A
S1130F801C438462D478002C0CD15C0305D593787F
S1130F90012B01D1816100E041615378013B012BB8
S1130FA000D8816030BDC046FFFFFBFF08B5031CBD
S1130FB00A1C4009D90903D10549C001401800E0C1
S1130FC000201F210B4001219940024B984708BD86
S1130FD000440041290F00007047000008B5044B8D
S1130FE09847044B9847044B9847044B984708BDCF
S1130FF0290C000075010000D90F0000D90F000072
S1131000FEE7000070B5204B02225A621F4B0321F9
S1131010D8780C2488431043D870DD780820A54381
S11310200543DD701A4B30269D7BB543202635439E
S11310309D739D7BA54328439873987B8843024303
S1131040144915489A73884201D0002301E0134BD8
S113105007E0134CCA18A242F9D2C45804331460EE
S1131060F7E7104A191D043B934203D200221A6089
S11310700B1CF6E70C4A0D4B7F218A439A600C4BFC
S113108098470C4B9847FEE7FC7000410050004124
S11310900048004100000020001400000800002067
S11310A004000020AC0000200000000000ED00E07F
S11310B051130000D511000008B503480349052267
S11310C0034B984708BDC04670000020A4000020D0
S11310D00D090000024B8022D2051A607047C046F9
S11310E09C44004130B591B06946FF228023DB0562
S11310F00A8196229201009300238B72CB7208928C
S113110005310122CA778918CA776A460732D3772C
S113111002AAD3770BAA1370537069466A461382E6
S1131120D37613761377537601930A9305934B770B
S113113080235B030393134B13220C93124B8A7685
S11311400D9301235B420E930F93104D1049281CFD
S11311506A46104B98470028F7D12C680E4B201C88
S113116098471F23184001238340181C0B4B186019
S11311702A68D369002BFCD123680222134323601D
S113118011B030BD020016000200170070000020EC
S113119000140042FD0500006905000000E100E0C4
S11311A038B5084C084D201C08490022A847201CCB
S11311B0074931340122A8472378032213432370BB
S11311C038BDC04670000020F5080000D5100000AE
S11311D0B910000030B5104B85B098470F4B9847B5
S11311E00F4B98470F4B01221A70BFF35F8F62B603
S11311F00D490F2268460D4B98470D4C0D4D201C90
S113120069460F22A8470C490522201C0B4B98471E
S1131210201C69460F22F5E7DD0F0000E5100000F1
S1131220A111000000000020CE1300009D13000057
S1131230700000200D090000A40000203D090000FA
S113124002B4714649084900095C49008E4402BC55
S11312507047C046002934D00123002210B48842CC
S11312602CD301242407A14204D2814202D20901D1
S11312701B01F8E7E400A14204D2814202D24900F2
S11312805B00F8E7884201D3401A1A434C08A04295
S113129002D3001B5C0822438C08A04202D3001B2B
S11312A09C082243CC08A04202D3001BDC08224342
S11312B0002803D01B0901D00909E3E7101C10BC66
S11312C07047002801D00020C04307B4024802A19F
S11312D04018029003BDC046190000000029F0D058
S11312E003B5FFF7B9FF0EBC4243891A1847C0463D
S11312F07047C0469140031C90409C46203A93405E
S1131300194352426346D340194370479C46030431
S1131310F0B51B0C17043F0C150C1E1C041C000C10
S11313207E436B4347434543FB18300C18188742F0
S113133002D980235B02ED18030CED1863465C436D
S11313404A433604360CA118000480194919F0BD2B
S113135070B50E4B0E4D0024ED1AAD101E1CAC42A0
S113136004D0A300F35898470134F8E700F038F8A4
S1131370084B094D0024ED1AAD101E1CAC4204D0DC
S1131380A300F35898470134F8E770BDEC1300004C
S1131390EC130000EC130000F013000010B5002360
S11313A0934203D0CC5CC4540133F9E710BD000070
S11313B000080042000C00420010004200140042E9
S11313C000180042001C0042090A0B0C0D0E48656F
S11313D06C6C6F20576F726C64210D0A0000000062
S11313E0F8B5C046F8BC08BC9E467047D90000005A
S11313F0F8B5C046F8BC08BC9E467047B100000072
S107140001000000E3
S9031005E7
