S018000055534152545F554E49545F54455354322E737265630D
S1130000782200206D240000692400006924000087
S113001000000000000000000000000000000000DC
S1130020000000000000000000000000692400003F
S113003000000000000000006924000069240000A2
S11300406924000069240000692400006924000078
S11300506924000069240000692400006924000068
S113006069240000050A0000150A0000250A0000A2
S1130070350A0000450A0000550A00006924000002
S11300806924000069240000692400006924000038
S11300906924000069240000692400006924000028
S11300A06924000069240000692400006924000018
S11300B010B5064C2378002B07D1054B002B02D03A
S11300C0044800E000BF0123237010BD6800002035
S11300D000000000C84A000008B5084B002B03D0FC
S11300E00748084900E000BF07480368002B03D015
S11300F0064B002B00D0984708BDC0460000000006
S1130100C84A00006C000020C84A0000000000003B
S11301100C4B1B68002B10D1EFF31083002B09D17B
S113012072B6BFF35F8F0022074B1A700122074B90
S11301301A7002E00022054B1A70024B1A68013251
S11301401A6070478400002000000020880000200E
S113015010B582B0174B186800280DD0164B1B68D9
S1130160002B14D1154B0093154B01930121154A13
S11301704C23154CA0470AE00F4B1B68002B06D1FB
S113018012480F490F4A4C23114CA047FEE70A4B73
S11301901A68013A1A601B68002B09D10D4B1B78B1
S11301A0002B05D001220C4B1A70BFF35F8F62B68F
S11301B002B010BD8C0000208400002044440000E4
S11301C05C4400000C4400000D0200008444000064
S11301D0CD330000880000200000002010B582B05C
S11301E00090019100280AD00648074B9847041C48
S11301F0002C05D10198009B9847201C00E00020AA
S113020002B010BD90000020EB34000070B582B045
S11302100E1C06AC02CCC1683248334DA847019489
S1130220324D2B6898680699221C314B98472868F0
S113023082689368013B9360002B19DA82689368A3
S113024091698B4210DB13680D221A70274B1868D2
S11302508268136819780A2902D00133136011E007
S11302600A21244B98470DE00D21224B984709E0C1
S113027083681B680D221A701C4B1B689B681A68E4
S113028001321A60194B186882689368013B9360C5
S1130290002B19DA8268936891698B4210DB13682A
S11302A00A221A70114B18688268136819780A298F
S11302B002D00133136011E00A210E4B98470DE080
S11302C00A210C4B984709E083681B680A221A70BC
S11302D0064B1B689B681A6801321A600648311C79
S11302E0064B9847A8440000CD330000640000206A
S11302F0A1380000D13B000090000020033500002D
S1130300F0B55F4656464D464446F0B485B0071CEA
S11303103A48B9683A4B98473A68002A5BD00025B6
S113032000260396B046374B9B46374EB246AB0089
S11303307A689C585B461C605046E168304EB04772
S11303402268002A0FD03148314B98472068211C7D
S1130350304B9847061E06D0E1682F482F4A331CBD
S1130360274CA04728E06068211C2A4B984702903C
S1130370002805D02848E168294A029B204EB0474E
S1130380A268002A14D02748214B9847A068211C52
S1130390204B9847814600280AD0029E002E07D1A0
S11303A0E1681D48204A4B46154CA0474E4602962C
S11303B00022144B1A60029E002E03DA039E0136BB
S11303C0039603E0F3179E1BF60FB04401353A6819
S11303D0AA42ACD802E000260396B046B968039E50
S11303E0009612484346064CA047301C404405B0D2
S11303F03CBC90469946A246AB46F0BDC8440000BA
S1130400CD3300008C000020E8440000FC440000D0
S1130410C5340000DD010000104500003445000033
S11304203C450000444500005C4500006445000074
S1130430F0B583B001AC012565700027A770257065
S11304403E20211C064EB0478022D205054B9A61FE
S1130450277065700F20211CB04703B0F0BDC04663
S1130460690400008044004170B584B0051C0C1C74
S1130470134B186800280BD0002912D1114A00929E
S1130480114A01920121114A4123114EB04708E05B
S1130490002906D10F480C490C4A41230E4CA047B1
S11304A0FEE703A980220A7022784A7062788A7073
S11304B0A278CA70281C094B984704B070BDC04686
S11304C08C00002044440000C8450000A4450000FE
S11304D00D02000084440000CD330000C523000059
S11304E010B5031C4908402099420CD30024C91AB2
S11304F0601C80B28B4201D8041CF8E74020FF2C1A
S113050001D81480002010BDF0B55F4656464D4614
S11305104446F0B487B0061C0D1C049210AA10784F
S1130520321C424340248A4200D9B3E0002B4BD111
S11305300021321C5E4CA04783462E1C002700205D
S11305400021002200233F24A4460125A84602904E
S113055003916146203903D440468840814605E032
S1130560202165464C1B4046E04081464146644696
S1130570A1408A46101C191C80185941021C0B1CEE
S11305805D464C46254202D0424602430B1C9F4224
S11305900CD801D1964209D8921BBB415046029D0A
S11305A028434946039C2143029003916546013D3B
S11305B0AC46CED2029803993C4B3B4A121A8B416B
S11305C0120C1B041A4362E00022012B5FD14F0F6F
S11305D0B946CD00AB460021321C0023344CA04761
S11305E0061C0F1C00230125029603979A465046C9
S11305F0C0B2059000218846002200233F24271C16
S1130600203F03D42E1CBE40019604E02020071B8B
S1130610291CF94001912E1CA6400096101C191C9F
S113062080185941021C0B1C5F463740BC46019E92
S11306304F463E4067463E4302D02A1C02430B1CF1
S1130640039898420BD802D10299914207D8029E8E
S1130650039F921BBB41474600980743B846013CA1
S1130660CDD2414652468B1ADB08124CA34208D91C
S1130670059A0132D2B205920126B2445746082F98
S1130680B5D140240598082804D042031A43049C99
S113069022800024201C07B03CBC90469946A24608
S11306A0AB46F0BDC046C04600000000010000009B
S11306B019330000FF1F000010B582B0041C0F4B5B
S11306C01B78002B01D000290DD001A90C70132038
S11306D00B4B984713200B4B9847084B5C70012237
S11306E01A70002007E0054B5A781D20141B621E67
S11306F094416442204002B010BDC046EC0000208A
S1130700012200001521000010B582B0494B984227
S11307102DD006D8484B98420DD0484B984217D05C
S113072061E0474B984240D0464B98424CD0464BF0
S1130730984258D12AE001296FD000296BD00229B0
S113074002D0032902D04EE0404871E040486FE0F7
S1130750012964D0002904D0022904D0032904D03B
S113076041E0032064E03B4862E03B4860E001294B
S113077057D0002904D0022904D0032904D032E040
S1130780364855E0364853E0364851E001294AD00E
S1130790002904D0022904D0032904D023E03248DC
S11307A046E0324844E0324842E001293DD0002985
S11307B004D0022904D0032904D014E02D4837E0E2
S11307C02D4835E02D4833E0012930D0002904D0EC
S11307D0022904D0032904D005E0294828E0294847
S11307E026E0294824E0294B186800280BD0284B20
S11307F00093284B01930121274A86235B00274C51
S1130800A047002014E026482249234A86235B009F
S1130810244CA047FEE724480AE0244808E0244882
S113082006E0244804E0244802E0244800E0244888
S113083002B010BD0010004200080042000C00424B
S113084000180042001C004200140042030006008D
S11308500300070003001E0003001F00030008003C
S113086003000A0003000B00030010000300120041
S11308700300130003000C0003000E0003000F002C
S11308800300160003001800030019008C00002068
S11308904444000018460000F04500000D0200002A
S11308A084440000CD33000003000400030005006D
S11308B003000100030009000300110003000D0000
S11308C00300170070B588B002A9184A0B1C70CA3F
S11308D070C332CA32C3029E864206D001239A00F4
S11308E002A95258824203D100E00023D8B21AE090
S11308F00133062BF3D10E4B186800280BD00D4B97
S113090000930D4B019301210C4A93235B000C4C83
S1130910A047002007E00B480749084A93235B00DF
S1130920094CA047FEE708B070BDC046D84500009A
S11309308C0000204444000018460000F0450000EC
S11309400D02000084440000CD33000010B582B0D5
S11309500B4B1868002809D00A4B00930A4B0193EB
S113096001210A4A41230A4CA04706E009480649E6
S1130970064A4123084CA047FEE702B010BDC0461A
S11309808C00002044440000184600002846000063
S11309900D02000084440000CD330000F0B50A4B82
S11309A01B78002B0CD1094F094E0A4D0024DE514F
S11309B05A1914600433182BF9D10122024B1A700E
S11309C08000024BC150F0BDF0000020F400002074
S11309D04D0900003001002010B582B0041C6846A7
S11309E005490622054B9847201C054B98476B4642
S11309F0185602B010BDC04620460000A9330000BE
S1130A00C508000008B5024B1B680020984708BDC4
S1130A10F400002008B5024B5B680120984708BD2C
S1130A20F400002008B5024B9B680220984708BDDB
S1130A30F400002008B5024BDB680320984708BD8A
S1130A40F400002008B5024B1B690420984708BD38
S1130A50F400002008B5024B5B690520984708BDE7
S1130A60F4000020F0B55F4656464D464446F0B4C7
S1130A7091B0041C0E1C151CC64B1868002810D01D
S1130A80002C18D1C44B0093C44B01930121C44AD8
S1130A9083235B00C34FB847BE4B186800280AD1B4
S1130AA01BE0002C19D1C048BC49BD4A83235B001C
S1130AB0BE4CA047FEE7002E00D0EEE2B64B0093FA
S1130AC0BB4B01930121B64A0823FF33B54FB84706
S1130AD0B04B186800280AD116E0002E14D1B24891
S1130AE0B349AF4A0823FF33B04CA047FEE7002DBB
S1130AF014D1A94B0093AF4B01930121A84A84233D
S1130B005B00A84FB84709E0002D07D1A648A949C2
S1130B10A34A84235B00A54CA047FEE72660301C53
S1130B20A54B9847021C33680520D90700D5B7E2C6
S1130B3033681C209F0700D5B2E2A04B186A911CB1
S1130B4001278F40391C014319620FA92D27EB5D42
S1130B500B701432D2B29046101C994B9847404601
S1130B60984B9847E85D0021974B9847EB7A63715F
S1130B702423EB5CA3712523EB5CE371EB7E2372EE
S1130B802B7F6372834B186800280FD0002C16D17A
S1130B90814B0093814B01930121814A3D23814F75
S1130BA0B8477C4B1868002816D008E0002C13D1F5
S1130BB07D487A497A4A3D237C4CA047FEE7216868
S1130BC0002913D1744B0093804B01930121744A83
S1130BD03E23744FB84709E02268002A06D17248C0
S1130BE07A496F4A3E23714CA047FEE723689A4630
S1130BF0181C714B9847143000226B46DA842F8AF4
S1130C0002978023DB019F4225D08023DB019F4292
S1130C1004D880239B019F4213D008E0C023DB014A
S1130C200299994212D080231B02994204D01022C7
S1130C3091460023984612E00327B94600218846CE
S1130C400DE0102291460123984608E00827B94692
S1130C500121884603E008229146002398462F6824
S1130C600397EF6804976F6905972F7E06972623ED
S1130C70EB5C07936B68002B13D0802252059342E0
S1130C802CD12723EB5C002B2CD1296A8846C0B2D7
S1130C904F4B9847011C40466A4626324D4B9847B5
S1130CA01DE02723EB5C002B09D04A460092286AFA
S1130CB0A96A6A4626324346474FB8470FE0296A75
S1130CC08B46C0B2424B9847011C4A460092584694
S1130CD06A4626324346404FB84700E000200028C9
S1130CE000D0DDE16B7E002B02D0AB7E51468B73CE
S1130CF0284B186800280BD0002C12D1264B0093E7
S1130D00264B01930121354A354B264FB84708E05D
S1130D10002C06D124482149304A314B234CA047AA
S1130D20FEE71C498846029FA946424610680028EF
S1130D300FD0002C16D1184B0093184B01930121AE
S1130D40264A284B174DA847124B1868002809D18A
S1130D5015E0002C13D114481049204A214B134CA0
S1130D60A047FEE72168002940D10B4A0092174BA7
S1130D7001930121194A1C4B0A4DA84736E021680A
S1130D80002933D108481149144A174B074CA0478E
S1130D90FEE7C0468C000020444400008C4600005E
S1130DA05C4600000D02000084440000CD330000C6
S1130DB09C460000C8450000C5080000000400402F
S1130DC00122000015210000B9060000944600002D
S1130DD079220000E104000009050000A04600009B
S1130DE0FE020000E9020000EA0200002368DB6959
S1130DF0002B9AD102974D466B4626331B885246E8
S1130E009381049B039F3B43059F3B4369680B43CA
S1130E10029F1F43069A13021F4307994B071F4360
S1130E20BB462723EB5C002B02D104231F43BB46A4
S1130E306A7E92022B7F5B021A43E97AAB7A0B43F8
S1130E401A436B7F1B021A432423EB5C5B041A4393
S1130E502523EB5C1B041A4390462B89FF2B11D0EE
S1130E60EA7E002A05D0A022D2045F461743BB467F
S1130E7004E080225204594611438B4642461A43E9
S1130E80904607E0EB7E002B04D08023DB045F4612
S1130E901F43BB462C23EB5C002B03D1844B9B7874
S1130EA0990703D580235A461A439346814B186801
S1130EB000280BD0002C12D17F4B00937F4B019361
S1130EC001217F4A7F4B804FB84708E0002C06D1B0
S1130ED07E487A497A4A7B4B7D4CA047FEE77549A8
S1130EE089465F4603954A46106800280FD0002CB7
S1130EF016D1714B0093714B01930121704A754BCC
S1130F00714DA8476B4B1868002809D115E0002CD7
S1130F1013D16E4869496A4A6E4B6D4CA047FEE78F
S1130F202168002913D1644A00926B4B019301217B
S1130F30634A6A4B644DA84709E02168002906D139
S1130F40624865495E4A654B614CA047FEE72368E9
S1130F50DB69002BC7D1BB46039D424653465A600A
S1130F60544B186800280BD0002C12D1524B00931C
S1130F70524B01930121524A524B534FB84708E058
S1130F80002C06D151484D494D4A4E4B504CA04778
S1130F90FEE7484988465F46A9464246106800284D
S1130FA00FD0002C16D1444B0093444B01930121E4
S1130FB0434A484B444DA8473E4B1868002809D182
S1130FC015E0002C13D141483C493D4A414B404C6B
S1130FD0A047FEE72168002913D1374A00923E4B0F
S1130FE001930121364A3D4B374DA84709E021685A
S1130FF0002906D135483849314A384B344CA0478A
S1131000FEE72368DB69002BC7D14D4652461760C3
S11310100EAB80221A7000225A70DA709A702B6B11
S11310200A936F6B0B97A96B0C91ED6B0D950025D3
S11310300EAFE9B2AB000AAA9858002802D1301CBE
S1131040274A9047431C05D03870000CC0B2391CA5
S1131050244A90470135042DEBD10023E36023613A
S11310606361A361E3612362A36263620022E38597
S1131070A3853023E2543123E2543223E254332350
S1131080E2542068184B9847051C1849184B984798
S1131090AD00184BEC50002002E0064B186826E522
S11310A011B03CBC90469946A246AB46F0BDC04642
S11310B0002000418C000020444400008C460000C5
S11310C0A0460000FE0200000D020000844400005F
S11310D0CD330000E902000094460000EA0200005B
S11310E009070000C5230000C50800005D1A0000C0
S11310F09D09000030010020F0B5474680B482B05D
S1131100041C0E1C4F4B1868002810D0002C18D15A
S11311104D4B00934D4B019301214D4A8823FF33DE
S11311204C4DA847474B186800280AD117E0002CFB
S113113015D149484549464A8823FF33474CA047BF
S1131140FEE72368002B15D13F4B0093444B0193DA
S113115001213F4AC4235B003E4DA8470AE02768AB
S1131160002F07D13C483E49394AC4235B003B4C1D
S1131170A047FEE72568E3791C20002B5DD0E38DB2
S11311809BB20520002B58D12E4B186800280BD099
S1131190002C12D12C4B00932C4B01930121314A8A
S11311A0314B2C4FB84708E0002C06D12A48274978
S11311B02C4A2D4B294CA047FEE7224B9846474624
S11311C0386800280FD0002C16D11F4B00931F4BFA
S11311D001930121234A254B1E4FB847194B186828
S11311E0002809D115E0002C13D11B4817491D4ACA
S11311F01E4B1A4CA047FEE72368002B13D1124F55
S11312000097174B01930121164A194B114FB84708
S113121009E02368002B06D10F481149114A144BE9
S11312200E4CA047FEE72368DB69002BC7D12E854F
S113123002222B7E1342FCD0002002B004BC904654
S1131240F0BDC0468C000020444400008C460000E1
S11312505C4600000D02000084440000CD33000011
S113126094460000A0460000FE020000E9020000CF
S1131270EA020000F0B5474680B482B0041C0E1C9C
S1131280634B1868002810D0002C18D1614B0093D0
S1131290614B01930121614AE4235B00604DA8473F
S11312A05B4B186800280AD117E0002C15D15D4863
S11312B059495A4AE4235B005B4CA047FEE7226885
S11312C0002A15D1534B0093584B01930121534AE3
S11312D0CA23FF33524DA8470AE02368002B07D1E5
S11312E0504852494D4ACA23FF334F4CA047FEE7AA
S11312F02568A3791C20002B00D184E0A38D9BB228
S11313000520002B00D07EE02B7E5F077BD5404B71
S1131310186800280BD0002C12D13E4B00933E4B92
S113132001930121424A434B3D4FB84708E0002C4A
S113133006D13C4838493E4A3E4B3B4CA047FEE769
S1131340334A90464346186800280FD0002C16D123
S1131350304B0093304B01930121354A364B304FCB
S1131360B8472B4B1868002809D115E0002C13D17D
S11313702C4829492E4A304B2B4CA047FEE72268C3
S1131380002A13D1234B0093284B01930121284AAF
S11313902A4B234FB84709E02268002A06D1214886
S11313A02249234A254B204CA047FEE72368DB69EA
S11313B0002BC7D16B8BDBB29F0621D09A0703D5D4
S11313C002236B831A201EE05F0703D504236B837B
S11313D01E2018E0DA0703D501236B83132012E0E3
S11313E0DF0605D56A8B102313436B8342200AE082
S11313F09A0605D56A8B202313436B83412002E0B0
S11314002B8D3380002002B004BC9046F0BDC04652
S11314108C000020444400008C4600005C46000020
S11314200D02000084440000CD3300009446000007
S1131430A0460000FE020000E9020000EA020000EB
S1131440F0B55F4656464D464446F0B483B0041C9E
S11314508B46161C6F4B186800280FD0002C16D131
S11314606D4B00936D4B019301216D4A6D4B6E4D95
S1131470A847684B1868002809D115E0002C13D13F
S11314806A486649664A674B694CA047FEE722688A
S1131490002A13D1604B0093664B01930121604AEB
S11314A0654B614DA84709E02368002B06D15F48CE
S11314B060495B4A604B5E4CA047FEE71720002E54
S11314C000D19FE0E3791C20002B00D19AE025682D
S11314D0504B186800280BD0002C12D14E4B0093AF
S11314E04E4B01930121554A554B4F4FB84708E0E5
S11314F0002C06D14D484949504A514B4C4CA04709
S1131500FEE7444A90464346186800280FD0002C52
S113151016D1414B0093414B01930121474A494B5A
S1131520414FB8473B4B1868002809D115E0002CFF
S113153013D13E483949414A424B3D4CA047FEE74E
S11315402268002A13D1344B00933A4B01930121B2
S11315503A4A3D4B344FB84709E02268002A06D185
S113156032483449354A384B314CA047FEE72368AA
S1131570DB69002BC7D1B14698460126334FBA46E2
S113158023E02A7E324204D1012B2DD0013B002BD3
S1131590F7D1434601339BB25A46424411786279EB
S11315A0012A01D0984607E04246023292B29046A0
S11315B05F46FB5C1B021943201C254A90474B469F
S11315C0013B9BB29946002B16D02B7E3342E0D1CF
S11315D05346D6E7297E114208D1012B08D0013B9E
S11315E0002BF7D100200DE012200BE0002009E0D1
S11315F0122007E0002005E02B7E9F07FAD4134B4E
S11316000222E7E703B03CBC90469946A246AB46AB
S1131610F0BDC0468C000020444400008C4600000D
S11316205C4600003E0200000D02000084440000FD
S1131630CD330000944600003F020000A0460000A5
S1131640FE020000E9020000EA020000FFFF0000C1
S1131650F9100000F0B583B0041C0D1C161C1F4BC0
S1131660186800280FD0002C16D11D4B00931D4B79
S1131670019301211C4A40231C4FB847174B18689B
S1131680002809D115E0002C13D119481549164A30
S11316904023184CA047FEE72368002B13D1104BBE
S11316A00093154B019301210F4A41230F4FB84773
S11316B009E02368002B06D10D480F490A4A41234B
S11316C00C4CA047FEE72368E685A562052133227A
S11316D0A15401229A7503B0F0BDC0468C000020CD
S11316E0444400008C460000D04600000D02000077
S11316F084440000CD33000094460000F0B583B06C
S1131700041C0D1C161C244B186800280FD0002C38
S113171016D1224B0093224B01930121214A5E23CF
S1131720214FB8471C4B1868002809D115E0002C3C
S113173013D11E481A491B4A5E231D4CA047FEE7DD
S11317402368002B13D1154B00931A4B01930121ED
S1131750144A5F23144FB84709E02368002B06D1CD
S1131760124814490F4A5F23114CA047FEE723682F
S1131770A685656205213222A15404229A75227A33
S1131780002A01D020229A75627A002A01D0082208
S11317909A7503B0F0BDC0468C000020444400009C
S11317A08C460000D04600000D0200008444000076
S11317B0CD33000094460000F0B583B0041C0E1C29
S11317C0151C1F4B186800280FD0002C16D11D4B78
S11317D000931D4B019301211C4A90231C4FB847D1
S11317E0174B1868002809D114E0002C12D11948AD
S11317F01549164A9023184CA047FEE7002E12D133
S1131800104B0093154B01930121104A9123104F63
S1131810B84708E0002E06D10E4810490B4A912320
S11318200D4CA047FEE7AB1C9B00E3185E60012350
S1131830AB401D1C3023E25C1543E55403B0F0BDFE
S11318408C000020444400008C460000D046000078
S11318500D02000084440000CD330000084700005E
S113186070B582B0041C0D1C134B186800280BD0F3
S1131870002C12D1114B0093114B01930121114AF9
S1131880A823114EB04708E0002C06D10F480C499C
S11318900C4AA8230E4CA047FEE7AB1C9B00E318A0
S11318A000225A600123AB401D1C3023E25CAA4392
S11318B0E25402B070BDC0468C00002044440000D5
S11318C08C460000D04600000D0200008444000055
S11318D0CD330000F0B583B0041C0E1C151C254B41
S11318E01868002810D0002C18D1234B0093234BE8
S11318F001930121224A8D235B00224FB8471D4BDF
S1131900186800280AD116E0002C14D11E481B497F
S11319101B4A8D235B001D4CA047FEE7002E14D10B
S1131920154B00931A4B01930121154A1C23FF33D5
S1131930144FB84709E0002E07D113481449104A40
S11319401C23FF33114CA047FEE71720002D0ED0B7
S1131950E38D9BB20520002B09D1E3791C20002BD9
S113196005D0201C311C2A1C0A4B9847002003B0C8
S1131970F0BDC0468C000020444400008C460000AA
S1131980D04600000D02000084440000CD33000066
S11319901847000055160000F0B583B0041C0E1C57
S11319A0151C254B1868002810D0002C18D1234B87
S11319B00093234B01930121224AA9235B00224F68
S11319C0B8471D4B186800280AD116E0002C14D122
S11319D01E481B491B4AA9235B001D4CA047FEE778
S11319E0002E14D1154B00931A4B01930121154A73
S11319F05423FF33144FB84709E0002E07D113488E
S1131A001449104A5423FF33114CA047FEE7172012
S1131A10002D0ED0A3791C20002B0AD0A38D9BB2DD
S1131A200520002B05D1201C311C2A1C0A4B984789
S1131A30002003B0F0BDC0468C00002044440000E8
S1131A408C460000D04600000D02000084440000D3
S1131A50CD33000020470000FD160000F0B583B030
S1131A6080008C4BC45825688B4B186800280BD019
S1131A70002C12D1894B0093894B01930121894A8F
S1131A80894B8A4EB04708E0002C06D18848844927
S1131A90844A854B874CA047FEE77F4E3068002878
S1131AA00FD0002C16D17D4B00937D4B0193012167
S1131AB07C4A814B7D4FB847774B1868002809D181
S1131AC015E0002C13D17A487549764A7A4B794C43
S1131AD0A047FEE72168002913D1704A0092774B92
S1131AE0019301216F4A764B704FB84709E0236890
S1131AF0002B06D16E4871496A4A714B6D4CA04760
S1131B00FEE72368DB69002BC8D12B7EAF7D1F4025
S1131B103123E35C3022A65C1E40F90721D5E38D16
S1131B209BB2002B1BD0A36A1978C9B20A1C581C9B
S1131B30A0626079012804D15A7812020A43023360
S1131B40A362D205D20D2A85E38D013B9BB2E385C6
S1131B50002B06D101232B750223AB7501E0012371
S1131B602B75BA0709D502232B7500223323E254BF
S1131B70F30702D5201CE16888477A0769D5A38D4D
S1131B809BB2002B63D06A8BD2B23F231340110760
S1131B9001D537231340002B37D09A0707D51A22D3
S1131BA03223E2546A8B022313436B8327E05907E1
S1131BB007D51E223223E2546A8B042313436B831A
S1131BC01DE0DA0707D513223223E2546A8B01237E
S1131BD013436B8313E0D90607D542223223E25420
S1131BE06A8B102313436B8309E020221A4206D028
S1131BF041223223E2546A8B202313436B837207FE
S1131C0027D5201C6369984723E02A8DD205D20D7D
S1131C10D3B2616A0B70636A591C616261790129EC
S1131C2004D1120A5A70636A01336362A38D013BC3
S1131C309BB2A385002B0CD104232B7500223223E5
S1131C40E254B20705D5201C2369984701E0042318
S1131C502B75F90607D510232B752B76F20602D5C2
S1131C60201CE3699847B90607D520232B752B76EA
S1131C70320702D5201CA3699847390707D50823E2
S1131C802B752B76B20602D5236A201C984703B025
S1131C90F0BDC046300100208C0000204444000008
S1131CA08C460000A0460000FE0200000D02000069
S1131CB084440000CD330000E90200009446000093
S1131CC0EA02000008B5082834D880001B4B1B58D2
S1131CD09F468020000230E0194B18692DE0194B13
S1131CE0186A8005800F184BC340181C25E0144B5C
S1131CF0586922E0124B1B68022018401DD011497C
S1131D001022CB681A42FCD00D4B1B685A0713D51E
S1131D1000200E4B98470A4B9B681B041B0C58432E
S1131D200BE05023074AD35C00205A0705D5044B27
S1131D30D86802E0002000E0054808BD28470000FC
S1131D400C0100200008004000127A0079220000F3
S1131D50006CDC0270B50C4B1C6A01788578407805
S1131D600122104080014026B44304432A40D0019C
S1131D7080229443221C02430320014009020348A9
S1131D8002400A431A6270BD00080040FFFCFFFFD6
S1131D9010B582B0082841D880002E4B1B589F46AE
S1131DA02D4B196A02220A431A6200204FE02A4B83
S1131DB0996902220A439A61002048E0264B198A55
S1131DC002220A431A82002041E0234B998A02220C
S1131DD00A439A8200203AE0204B196802220A43FF
S1131DE01A601A681E4B1A401B4B9A84191C102245
S1131DF0CB681A42FCD0194A9168174BD9625168D2
S1131E009962126892B29A84002020E0124A442314
S1131E10D05C02210143D154002018E0114B186812
S1131E2000280BD0104B0093104B01930121104A52
S1131E308E239B000F4CA047172008E00E480B4947
S1131E400B4A8E239B000D4CA047FEE7002002B0F6
S1131E5010BDC0464C470000000800400C010020A3
S1131E607FFF00008C00002044440000184600005E
S1131E70704700000D02000084440000CD330000D0
S1131E8030B585B0C222D200194B9A60194B5A68FA
S1131E901E218A435A6001236A4613700024164D9A
S1131EA0E0B26946A8470134252CF9D103A80024DF
S1131EB04470012585700470104B98470620104B20
S1131EC09847104B9847104B1C725C729C7201959A
S1131ED06B465C7006236A461370147254720020B9
S1131EE069460A4B98470020094B984705B030BD16
S1131EF0000800400040004101220000551D000080
S1131F00911D0000151F000000040040391F00004F
S1131F1045200000064B996908220A439A61012270
S1131F20044B1A70191C0B781342FCD17047C0463D
S1131F3000040040000C0040F0B583B0061C0D1CEA
S1131F40354B186800280BD0002912D1334B00936D
S1131F50334B01930121334A7523334CA04708E0E6
S1131F60002906D131482E492E4A7523304CA0470A
S1131F70FEE7371C2C78240234436B78002B02D004
S1131F808023DB021C436B7A002B02D080231B03CB
S1131F901C436B68012B19D95A1E134210D1022B12
S1131FA006D902210022013249008B42FBD800E00D
S1131FB000221202371C174380235B031C4305E0F5
S1131FC01B02371C1F4380239B021C432B7A002BCC
S1131FD002D080239B031C43164B5A7852B2002A2A
S1131FE0FBDB154B9847154B1E70124B5A7852B2B7
S1131FF0002AFBDB0F4B9F605A7852B2002AFBDBAE
S11320000C4B5968802252020A4014435C600C4B0A
S1132010984703B0F0BDC0468C0000204444000043
S1132020C8450000B04700000D02000084440000D1
S1132030CD330000000C004011010000080C0040EA
S11320405101000010B5041C0B4A53785BB2002BFD
S1132050FBDB0A4B98470A4B1C70074A53785BB268
S1132060002BFBDB044B5968802252020A435A605E
S1132070044B984710BDC046000C004011010000FD
S1132080040C00405101000070B5041C1A4A537836
S11320905BB2002BFBDB194B9847194B1C70164A9B
S11320A053785BB2002BFBDB134E7068C004C00E88
S11320B0144B9847051C124B1C707668F602F60FF9
S11320C0114B1C700C4A53785BB2002BFBDB0A4BA0
S11320D09C68240AA4B20D4B9847002E07D1012C0A
S11320E007D9281C211C0A4B9847051C01E0013420
S11320F0E540281C70BDC046000C004011010000E2
S1132100040C0040C51C0000080C004051010000F4
S11321107932000010B5041C064B9847064B1C701E
S1132120064B59888022D2010A435A80044B9847AF
S113213010BDC04611010000020C0040000C00401C
S11321405101000010B582B0041C204B9847204B6D
S11321501C70204B186800280ED01F4B5B88DB0BCB
S113216016D01E4B00931E4B019301211D4A982348
S1132170FF331D4CA0470BE0174B5B88DB0B07D0EC
S11321801A481749174A9823FF33194CA047FEE70A
S1132190114B58880005000F5988164A0A405A8086
S11321A05988154A0A405A80191C8022D2014B884A
S11321B01342FCD1084B010258880E4A02400A43DC
S11321C05A800E4B984702B010BDC0461101000062
S11321D0020C00408C000020000C0040444400002D
S11321E0F0470000B04700000D02000084440000E6
S11321F0CD330000FFF0FFFFFFBFFFFF51010000E0
S113220070B582B0041C0D1C124B186800280CD049
S1132210002914D1104B0093104B01930121104A53
S11322206223FF330F4EB04709E0002907D10E485F
S11322300A490B4A6223FF330C4CA047FEE72D7872
S11322402D022543201C0A4B9847ADB2094B5D80F3
S113225002B070BD8C00002044440000C84500005A
S1132260B04700000D02000084440000CD3300009C
S113227045210000000C004010B5041C064B984793
S1132280064B1C70064B5C882405240F054B9847AD
S1132290201C054B984710BD11010000020C0040A2
S11322A0000C00405101000089200000F0B583B00B
S11322B0051C0E1C141C3A4B186800280FD0002D66
S11322C016D1384B0093384B01930121374A4123EF
S11322D0374FB847324B1868002809D114E0002D55
S11322E012D134483049314A4123334CA047FEE7E8
S11322F0002C12D12B4B0093304B019301212B4A1C
S113230042232B4FB84708E0002C06D129482B491B
S1132310264A4223284CA047FEE7E378002B1ED12F
S11323202378802B04D01B0680225202134300E042
S11323300023627802218A430AD1A278002A03D1B9
S113234080229202134302E0C022D20213436E6041
S11323506278013A012A04D8194A134001E06E60F8
S113236000233104090CA022D2050A431A43AA62AD
S1132370310CD02212060A431A43AA62E278002AD8
S11323800CD15A0305D5A378012B01D1AE6100E02D
S11323906E616378013B012B00D8AE6003B0F0BDE1
S11323A08C00002044440000D04500000C4800008C
S11323B00D02000084440000CD330000C845000035
S11323C0FFFFFBFF70B582B0041C0D1CC30904D1D0
S11323D04009C001114BC01817E0114B18680028C0
S11323E00BD0104B0093104B019301210F4AB123E2
S11323F05B000F4EB047002007E00E480A490B4A25
S1132400B1235B000C4CA047FEE71F210C400121C7
S1132410A1402A1C094B984702B070BD00440041FA
S11324208C00002044440000184600003C48000092
S11324300D02000084440000CD330000AD220000F2
S11324407047C04608B5044B9847044B9847044B63
S11324509847044B984708BD811E000031040000D2
S11324604124000041240000FEE7C04670B502216B
S113247090235B00284AD150284BD8780321884305
S113248002221043D870DD780C24A54308200543AC
S1132490DD70234B9E7B3025AE43202535439D7351
S11324A09D7BA54328439873987B884302439A7382
S11324B01C4B1D4A9A4203D01C4B1A4A9A4204D31D
S11324C01B4B1C4A9A4210D31BE01B4B174803308A
S11324D0C01A80080130800000231249124AD458DF
S11324E0CC5004338342FAD1EAE7124B1A1D104947
S11324F00331891A890889005218002102C39342C2
S1132500FCD10E4B7F210E4A8A439A600D4B9847AB
S11325100D4B9847FEE7C046007000410050004153
S11325200048004100000020C84A00006800002064
S113253078020020680000200400002000ED00E084
S1132540000000005D3300001D310000F0B5474677
S113255080B40C1C904600280CD1002A0DDD8F1885
S1132560094E0A4D3068211C2B6898470134BC423F
S1132570F8D104E00120404202E0002000E040469F
S113258004BC9046F0BDC046500100204801002024
S1132590F0B5474680B40E1C151C0138022810D82B
S11325A0002A11D000240D4B98460D4F434618685D
S11325B0315D3B689847002808DB0134A542F5D11A
S11325C007E00120404205E0002003E001204042F2
S11325D000E0201C04BC9046F0BDC0465001002021
S11325E04C010020064B1B68002B02D1054A044B0A
S11325F01A60034A136818181060181C7047C04604
S11326002401002078220020012040427047C04667
S113261080239B014B6000207047C0460120704717
S1132620002070470122014B1A7070478801002076
S113263030B583B0041C244B186800280CD0002C3F
S113264014D1224B0093224B01930121214AC72329
S11326509B00214DA84709E0002C07D11F481C49C5
S11326601C4AC7239B001E4CA047FEE78023DB05C2
S1132670236000236360FF2222810022A372E3729D
S113268096218901216201212420215425202154ED
S11326902621635427216354A36288214903E160FE
S11326A02C2163542D21635423636363A363E36385
S11326B063612382E3762276227762761323A376FC
S11326C0627703B030BDC0468C0000204444000053
S11326D0C8450000A04600000D020000844400002C
S11326E0CD330000F0B5474680B48CB0804608ACCA
S11326F02D4B221C23CB23C21B78137004AE002560
S11327000495059506953573284F381C28490122F0
S1132710284B98473123F95C02220A43FA54264B8A
S11327201D70381C311C0D22244B98472448211C51
S11327300D22244B9847244B1F49013B9BB20A7836
S1132740002A02D1002BF8D101E0002B08D11F4B45
S11327500093404601211E4A90235B001D4CA04774
S113276012483123C25C02218A43C25401211A4B0C
S1132770984704AC08A8211C184B984700232373DE
S113278000B200280CD0164B009308AB019304ABA5
S11327900293404601210E4A2E23FF330D4CA047DD
S11327A00CB004BC9046F0BD604900005401002008
S11327B025260000B917000088010020991900009F
S11327C00002002041140000FFFF00001C4900002B
S11327D0084900000D020000611800002D360000B9
S11327E03449000070B5061C0D1C034C301C291C18
S11327F0A0470028FAD170BDF910000030B587B0A9
S1132800051C6C460023E38216340E4853210E4BFC
S113281098470E48211C0E4B984723889BB2532B94
S11328200DD06B4616331B880A4A0092532201923C
S11328300293281C0121084AC423084CA04707B06E
S113284030BDC04600020020F910000054010020F1
S11328507512000070490000084900000D020000D4
S113286070B582B0051C0E1C00226B46DA80064C43
S1132870281C69460631A0470028F9D16B46063367
S11328801B88337002B070BD75120000F0B583B0C0
S1132890041C4B4B186800280FD0002C16D1494B50
S11328A00093494B01930121484A494B494DA8479C
S11328B0434B1868002817D008E0002C14D1464870
S11328C04149424A424B454CA047FEE72368002B4E
S11328D015D13C4B0093424B019301213B4AD62333
S11328E09B003C4DA8470AE02368002B07D13A48D7
S11328F03B49364AD6239B00384CA047FEE726685E
S1132900301C384B98471F22104001228240364B1E
S11329101A602B4B186800280BD0002C12D1294BBD
S11329200093294B01930121284A304B294DA84794
S113293008E0002C06D128482349244A2B4B274C75
S1132940A047FEE71E4D286800280FD0002C16D1A2
S11329501C4B00931C4B019301211C4A244B1D4F1B
S1132960B847174B1868002809D115E0002C13D17B
S113297019481549154A1E4B184CA047FEE7236811
S1132980002B13D10F4B0093154B019301210F4AD8
S1132990184B104FB84709E02368002B06D10E48A6
S11329A00F490A4A134B0D4CA047FEE72368DB6925
S11329B0002BC8D1326802231343336003B0F0BD47
S11329C08C000020444400008C460000A046000017
S11329D0570300000D02000084440000CD330000C2
S11329E094460000D909000000E100E0FE02000066
S11329F0E9020000EA020000F0B5474680B48CB05A
S1132A00804608AC294B221C23CB23C21B781370AD
S1132A1004AE00250495059506953573244F381C9E
S1132A2024490122244B98473123F95C02220A43AA
S1132A30FA54224B1D702248211C0D22214B984729
S1132A40381C311C0D22204B9847204B1B49013B5D
S1132A509BB20A78002A02D1002BF8D101E0002BA6
S1132A6008D11B4B0093404601211A4AAB235B005B
S1132A70194CA04704AC08A8211C184B9847002304
S1132A80237300B200280CD0154B009308AB0193BC
S1132A9004AB0293404601210E4AB0235B000E4C66
S1132AA0A0470CB004BC9046F0BDC046604900008D
S1132AB05401002025260000B917000088010020D9
S1132AC000020020D518000099190000FFFF000043
S1132AD09C490000084900000D0200002D3600004A
S1132AE034490000F0B54F464646C0B487B081462D
S1132AF0C44B186800280DD0C34B1B68002B14D19D
S1132B00C24B0093C24B01930121C24AC24BC34C36
S1132B10A0470AE0BC4B1B68002B06D1C048BC4947
S1132B20BC4ABD4BBF4CA047FEE7B74B1E68301CE8
S1132B30BD4B98471F210840012181408023BB4A97
S1132B40D150B04CB04A9046151C206800280CD0D7
S1132B502B68002B14D1AD4A0092AD4A0192012199
S1132B60AC4AB34BAD4FB8470AE042461268002A5C
S1132B7006D1AB48A649A74AAD4BAA4CA047FEE7ED
S1132B80A14B1B68DB69002BDFD13368022293431E
S1132B903360A84A0123D3729B48A749A74B98479F
S1132BA0984B186800280ED0974B1B68002B16D141
S1132BB0964B0093964B01930121964AD6239B0092
S1132BC0964CA0470BE0904B1B68002B07D1944810
S1132BD08F49904AD6239B00924CA047FEE78A4B2C
S1132BE01E68301C904B98471F22104001228240DF
S1132BF08E4B1A60834C844B98461D1C2068002819
S1132C000CD02F68002F14D1804B0093804B01937C
S1132C100121804A864B814FB8470AE04246126838
S1132C20002A06D17E487A497A4A814B7D4CA047D6
S1132C30FEE7754B1B68DB69002BDFD1326802238A
S1132C40134333606F4B186800280DD07C4B1B680E
S1132C50002B14D16D4B00936D4B019301216D4AF0
S1132C606D4B6E4CA0470AE0754B1B68002B06D1D8
S1132C706B486749674A684B6A4CA047FEE7704B4C
S1132C801E68301C684B98471F2108400121814071
S1132C908023664AD1505B4D694B98461C1C2868BA
S1132CA000280CD02768002F14D1584B0093584BA0
S1132CB001930121574A5E4B584FB8470AE04246F8
S1132CC01268002A06D156485149524A584B554C6D
S1132CD0A047FEE75A4B1B68DB69002BDFD1336842
S1132CE0022293433360574A0123D372544856490E
S1132CF0524B9847434B186800280ED0504B1B6822
S1132D00002B16D1414B0093414B01930121414AC1
S1132D10D6239B00414CA0470BE0494B1B68002B7A
S1132D2007D13F483A493B4AD6239B003D4CA04734
S1132D30FEE7434B1C68201C3B4B98471F22104066
S1132D4001228240394B1A602E4E3D4B98461D1C81
S1132D50306800280CD02F68002F14D12B4B00931F
S1132D602B4B019301212B4A314B2C4FB8470AE0DE
S1132D7042461268002A06D129482549254A2C4B87
S1132D80284CA047FEE72E4B1B68DB69002BDFD1E4
S1132D902268022313432360B32464002848211CBF
S1132DA02A4B98476D4616351748291C284B9847D7
S1132DB02B88A34209D0274A0092019402934846E3
S1132DC00121254AE823154CA0470E4B186800281A
S1132DD00DD00D4B1B68002B40D10C4B00930C4BBA
S1132DE0019301210B4A0C4B0C4CA04736E0064BD7
S1132DF01B68002B32D10A480549064A064B094C88
S1132E00A047FEE78C000020540100204444000049
S1132E1094460000A0460000750300000D02000067
S1132E2084440000CD330000D909000000E100E033
S1132E30EA0200003402002000180042650A000083
S1132E4000020020C001002000080042F910000028
S1132E507512000070490000084900009D4B1C6871
S1132E60201C9D4B98471F2108400121814080234D
S1132E709A4AD1509A4D974B98461E1C28680028B0
S1132E800CD03768002F14D1964B0093964B0193C6
S1132E900121964A964B974FB8470AE0424612687A
S1132EA0002A06D194489049904A914B934CA047EC
S1132EB0FEE7884B1B68DB69002BDFD12368022205
S1132EC0934323608E4A0023D37282488D498E4BEC
S1132ED09847834B186800280ED07E4B1B68002B44
S1132EE016D1804B0093804B019301217F4AD62356
S1132EF09B00804CA0470BE0764B1B68002B07D14E
S1132F007D487949794AD6239B007C4CA047FEE74B
S1132F10704B1C68201C704B98471F2210400122E4
S1132F2082406E4B1A606E4E6A4B98461D1C306888
S1132F3000280CD02F68002F14D16A4B00936A4BE1
S1132F4001930121694A6A4B6A4FB8470AE0424635
S1132F501268002A06D168486349644A644B674C86
S1132F60A047FEE75B4B1B68DB69002BDFD12268BF
S1132F700223134323605A4B186800280DD0634B77
S1132F801B68002B14D1574B0093574B019301211D
S1132F90564A5F4B574CA0470AE05C4B1B68002B1A
S1132FA006D155485049514A594B544CA047FEE765
S1132FB0564B1C68201C484B98471F210840012190
S1132FC081408023454AD150454E504B98461D1CA4
S1132FD0306800280CD02F68002F14D1414B009387
S1132FE0414B01930121414A414B424FB8470AE00A
S1132FF042461268002A06D13F483B493B4A3C4BB3
S11330003E4CA047FEE7414B1B68DB69002BDFD138
S113301023680222934323603E4A0023D3723B4831
S11330203D49394B98472E4B186800280ED0374B32
S11330301B68002B16D12B4B00932B4B01930121C2
S11330402A4AD6239B002B4CA0470BE02F4B1B682E
S1133050002B07D128482449244AD6239B00274C17
S1133060A047FEE7294B1C68201C1B4B98471F22D6
S1133070104001228240194B1A60194D234FB84663
S1133080286800280DD046463668002E13D1154B0B
S11330900093154B01930121144A154B154EB0476B
S11330A009E03A68002A06D113480F490F4A104B29
S11330B0124CA047FEE7154B1B68DB69002BDFD1E0
S11330C0226802231343236007B00CBC9046994640
S11330D0F0BDC04654010020D909000000E100E021
S11330E08C0000204444000094460000A0460000E8
S11330F0EA0200000D02000084440000CD33000009
S11331003402002000180042650A0000000200207A
S113311075030000C001002000080042F0B55746C6
S11331204E464546E0B498B0354B984701A8354A19
S11331309146904780235B0398460493324B0D934A
S1133140324B0E9301256D420F95109596231B0269
S113315009932F4C2F4B1C602F4A304B1A60304A76
S1133160304B1A60201C304901AA304FB847304B0D
S11331709A461B68986800212E4EB0475246136841
S113318058680021B047201C2B4EB0472B4C201C04
S1133190C8474346E3602A4B23632A4B6363A56312
S11331A0E563E1256D022562274882462749221CF2
S11331B0B8475046B047264C201CC8474246E260F8
S11331C0244B2363244B6363244BA363244BE363A7
S11331D02562244D281C2449221CB847281CB047CA
S11331E014AB224A191C31CA31C112680A60042284
S11331F0119212931E4B139311A81E4B9847FEE78E
S113320045240000312600000200160002001700C9
S11332108C01002050010020E52700004C01002013
S1133220612800004801002000140042650A0000E3
S113323064000020D93400008D28000034020020EE
S11332400300280003002900540100200018004254
S1133250C001002003000400030005000300060071
S11332600300070000020020000800426C48000030
S1133270DC48000001030000002934D001230022AF
S113328010B488422CD301242407A14204D28142E1
S113329002D209011B01F8E7E400A14204D28142F1
S11332A002D249005B00F8E7884201D3401A1A436E
S11332B04C08A04202D3001B5C0822438C08A042A5
S11332C002D3001B9C082243CC08A04202D3001B5B
S11332D0DC082243002803D01B0901D00909E3E7D5
S11332E0101C10BC7047002801D00020C04307B454
S11332F0024802A14018029003BDC0461900000014
S11333000029F0D003B5FFF7B9FF0EBC4243891A78
S11333101847C0467047C0469C460304F0B51B0CD2
S113332017043F0C150C1E1C041C000C7E436B433D
S113333047434543FB18300C1818874202D98023B1
S11333405B02ED18030CED1863465C434A433604F4
S1133350360CA118000480194919F0BD70B50E4B44
S11333600E4D0024ED1AAD101E1CAC4204D0A30077
S1133370F35898470134F8E701F096FB084B094DE0
S11333800024ED1AAD101E1CAC4204D0A300F35867
S113339098470134F8E770BDB44A0000B44A00000D
S11333A0B44A0000B84A000010B50023934203D089
S11333B0CC5CC4540133F9E710BD031C821893425A
S11333C002D019700133FAE7704700000FB40B4BB9
S11333D013B51C68002C05D0A369002B02D1201C56
S11333E000F0CAFD05ABA168201C049A019300F00B
S11333F04FF916BC08BC04B01847C046640000204E
S113340070B5051C0E1C002804D08269002A01D165
S113341000F0B2FDAC68A3891A0702D52369002B1A
S113342019D1281C211C00F02BFC002813D00120EA
S1133430404245E03178002B1BDAA269934211DA4D
S1133440281C221C00F0C4FB013043425841C0B286
S11334500028ECD10136A3683278013BA360002A2E
S1133460E8D10CE023681970236819780A2903D17C
S1133470E6E722681170236801332360EAE7002B32
S113348017DAA269934208DB22680A2313702368BF
S113349019780A2911D1281C01E0281C0A21221CB0
S11334A000F096FB013043425841C0B2002806D0D8
S11334B0BDE722680A2313702368013323600A20BE
S11334C070BD000008B5034B011C1868FFF798FF96
S11334D008BDC0466400002008B54A424A41802322
S11334E05200DB0000F01CF808BDF0C041464A461B
S11334F053465C466D4676467EC02838F0C80020A8
S1133500704710307CC890469946A246AB46B546F3
S113351008C82838F0C8081C00D10120184700004A
S1133520F7B51E1C3C4B041C1D680F1C0192002D9A
S113353005D0AA69002A02D1281C00F01DFD374BD2
S11335409C4201D16C6808E0354B9C4201D1AC68C7
S113355003E0344B9C4200D1EC68019B022B57D80A
S1133560002E55DB281C211C00F086FC0023636020
S1133570A361A3891A0603D5281C216900F0D2FD92
S1133580A38983229343A381019B022B13D0002F91
S113359025D1002E01D18026F600301C00F0ACFDB0
S11335A0071E18D18020C00000F0A6FD071E10D110
S11335B00120404200E00020A38902221343A3819A
S11335C00023A360231C4733236023610123636129
S11335D020E08026F600A38980221343A381019A68
S11335E0012A04D1A3891343A3817342A3610E4B1F
S11335F00020AB62A3892760276166611A0709D599
S1133600032213405A4253415B421E40A66001E02C
S113361001204042FEBDC04664000020484A00002C
S1133620684A0000884A0000D13E000002780B7806
S113363001300131002A01D09A42F7D0D01A7047E4
S1133640936810B5013B9360002B05DA9469A3429B
S113365008DBCBB20A2B05D01368581C1060197014
S1133660C8B201E000F0B4FA10BDF8B5061C0F1C96
S1133670141CD518AC4208D02178301C3A1CFFF732
S1133680DFFF0134431CF5D100E00020F8BD000049
S1133690F0B59FB0061C0F1C03920593002804D0BC
S11336A08169002901D100F067FC754B9F4201D16B
S11336B0776808E0734B9F4201D1B76803E0724B0F
S11336C09F4200D1F768BB891A070AD53B69002BD2
S11336D007D006AD00236B6120236B763023AB76D5
S11336E03BE0301C391C00F0CBFA0028F1D001205B
S11336F04042C2E0059A111D12680591002A76DB4A
S11337000992013423782E2B00D181E021785F487F
S1133710032200F0FBFC002807D05C492A68431A06
S1133720402098401043286001342178631C584895
S113373006220393297600F0E9FC002800D18AE0F0
S1133740544B002B7ED1059B072207339343083348
S113375005936A69049953186B61039C2378002BC1
S113376004D10399611A029110D003E0252BF8D0FB
S11337700134F3E7301C391C039A029BFFF775FFF1
S1133780013075D06A69029953186B612378002B54
S11337906ED0012252426A606A4600235B320134D1
S11337A02B60EB60AB601370AB6521783A4805225F
S11337B000F0ACFC002808D0374A0134831A0120F9
S11337C098402B6818432860EFE72B68D90603D587
S11337D06A4620215B3211701A0703D56A462B21F1
S11337E05B32117022782A2A84D0099B05E0524268
S11337F0EA60022213432B6083E72278303A092AD5
S113380004D80A214B4301349B18F6E7099379E75E
S113381063782A2B09D1059B02341A1D1B68059273
S1133820002B0DDA01235B420AE0013400232278E5
S1133830303A092A04D80A214B4301349B18F6E78D
S1133840079363E705AB0093301C291C3A1C134B08
S113385000E000BF07E005AB0093301C291C3A1CB4
S11338600E4B00F09FF804900499013100D070E7EA
S1133870BB895A0600D53AE70B981FB0F0BDC04685
S1133880484A0000684A0000884A00001A4A0000BA
S11338901E4A000000000000144A00006B360000BD
S11338A038B5131C044A051C0C1C1068291C221C66
S11338B0FFF7EEFE38BDC04664000020F7B5151CC6
S11338C001930A698B68061C0C1C934200DA131CD2
S11338D0221C2B6043321278002A01D001332B6062
S11338E02068800602D52B6802332B6021680627E6
S11338F00F401FD0231C43331B785A1E9341226868
S113390092061FD5E11840313020C870211C5A1C82
S113391045310978A21840320233D17012E0221CDA
S1133920301C019919320123089FB847013011D086
S1133930009F01370097E0682968009F431A9F425F
S1133940EDDBD7E7221C301C01994332089FB847AE
S1133950013002D10120404223E0206806212B6877
S1133960E26801400025042903D1D51AEB43DB1793
S11339701D40A26823699A4201DDD31AED1800277D
S11339800097009FAF420BDA221C301C01991A32B7
S11339900123089FB8470130DCD0009F0137EFE7CF
S11339A00020FEBDF0B50D1C8BB04335069205908A
S11339B0079304950B7E0C1C109A6E2B00D1A7E084
S11339C011D8632B22D009D8002B00D1B0E0582B9A
S11339D000D0C0E045310B707B4D4EE0642B1CD011
S11339E0692B1AD0B7E0732B00D1A5E009D86F2B4F
S11339F029D0702B00D0AEE00E68202333430B6037
S1133A0036E0752B1FD0782B32D0A4E013680D1C40
S1133A10191D423511601B689FE0216813680E066A
S1133A2003D5191D11601E6805E04806F9D5191D56
S1133A30116000215E5E644B002E3BDA049D2D2252
S1133A4076422A7036E0216813680E0603D5191DE4
S1133A5011601E6804E04806F9D5191D1E8811601E
S1133A60594B227E039308276F2A1ED00A271CE095
S1133A70231C78214533554D197011682368081D9E
S1133A80039510601E0601D50E6802E05806FBD5AA
S1133A900E88D90702D52022134323601027002E55
S1133AA003D1226820239A432260231C002243333B
S1133AB01A7001E003930A276368A360002B03DBF9
S1133AC02568042295432560002E02D1049D002B15
S1133AD00ED0049D301C391CFFF712FC0398013DE5
S1133AE0435C301C2B70391CFFF7C6FB061EF1D15A
S1133AF0082F09D12168C90706D5626823699A424B
S1133B0002DC013D30232B70049E731B23612AE0E9
S1133B10086813684969050604D5181D10601B68F8
S1133B20196005E04606F8D5181D10601B68198059
S1133B3000232361049D16E01368191D11601D689C
S1133B40281C00F0E9FB63682061984200D92361D6
S1133B502069606004E0251C42352B700123236139
S1133B60049E00233370079E05980096211C09AA21
S1133B70069BFFF7A3FE013002D10120404221E061
S1133B802A1C059806992369079DA8470130F4D09B
S1133B902668B60705D4099BE068984212DA181C17
S1133BA010E00025E0680999431A9D42F3DA221CCB
S1133BB00598069919320123079EB0470130DCD0DD
S1133BC00135EFE70BB0F0BD254A0000364A00008E
S1133BD070B5051C0E1C141C002804D08269002A30
S1133BE001D100F0C9F9234B9C4201D16C6808E073
S1133BF0214B9C4201D1AC6803E0204B9C4200D194
S1133C00EC68A369A360A3891A070AD52369002B6A
S1133C1007D022682369F6B2D01A626990420FDB9A
S1133C2008E0281C211C00F02BF80028F1D001200A
S1133C3040421DE0281C211C00F01EF90028F6D18A
S1133C40A3680130013BA36023685A1C22601E70E4
S1133C506369984205D0A389301CDA0708D50A2E77
S1133C6006D1281C211C00F007F90028DFD1301CE4
S1133C7070BDC046484A0000684A0000884A0000F7
S1133C80344B70B51D68061C0C1C002D05D0A969A9
S1133C90002902D1281C00F06FF92F4B9C4201D15E
S1133CA06C6808E02D4B9C4201D1AC6803E02C4BBE
S1133CB09C4200D1EC68A28993B2190721D4D90699
S1133CC005D40923336040231A43A2813FE05A07F5
S1133CD013D5616B002908D0231C4433994202D0C8
S1133CE0301C00F01FFA00236363A389242293434A
S1133CF0A3810023636023692360A38908221343FB
S1133D00A381216900290BD1A389A02292001A4022
S1133D1080239B009A4203D0301C211C00F09CF9A4
S1133D20A38901221A4005D061690022A2604A4297
S1133D30A26103E0990700D46269A26022690020AD
S1133D40824206D1190604D540221343A3810120DF
S1133D50404270BD64000020484A0000684A0000E8
S1133D60884A0000F7B58B89051C0C1C19075ED422
S1133D706268002A02DC276C002F1ADDE76A002F34
S1133D8017D000222E682A60802252011A4001D0E6
S1133D90626D15E0281C216A0123B847021C411CEE
S1133DA00ED12B68002B0BD01D2B01D0162B02D16A
S1133DB02E6000205EE0A38940210B43A38159E0DB
S1133DC0A3895F0706D56168636B521A002B01D083
S1133DD0276CD21B281C216A0023E76AB847A289F2
S1133DE0411C06D12B68002B03D01D2B01D0162BB0
S1133DF019D10023636023692360D70405D5411CCE
S1133E0002D12A68002A00D16065616B2E60002906
S1133E10CFD0231C4433994202D0281C00F082F9ED
S1133E200020606326E040231A43A28122E0266931
S1133E30002EBED027680022BF1B01972660990779
S1133E4000D16269A260019F002FB2DD281C216AA3
S1133E50321C019BA76AB847002806DCA3894022CC
S1133E6013430120A381404204E0019F36183F1A06
S1133E700197E8E7FEBD00000A6938B5051C0C1C73
S1133E80002A01D100201CE0002804D08369002B03
S1133E9001D100F071F80B4B9C4201D16C6808E031
S1133EA0094B9C4201D1AC6803E0084B9C4200D111
S1133EB0EC680C22A35E002BE4D0281C211CFFF725
S1133EC051FF38BD484A0000684A0000884A000093
S1133ED0F8B5041C071C4834002C12D0A568666889
S1133EE0013E0CD4AB89012B07D90E22AB5E013302
S1133EF003D0381C291CFFF7BFFF6835F0E724689E
S1133F00EAE7F8BD002310B5041C03604360836036
S1133F1081814366C281036143618361191C082264
S1133F205C30FFF74AFA054B24626362044BA362D8
S1133F30044BE362044B236310BDC046814200007E
S1133F40A9420000E14200000D43000070B54B1E81
S1133F5068255D430E1C291C743100F02BF9041EE6
S1133F6008D00021016046602A1C0C30A060683231
S1133F70FFF723FA201C70BD836913B5041C002BC2
S1133F8027D18364C3640365124B134A1B6882629E
S1133F90984201D101238361201C00F01FF8606066
S1133FA0201C00F01BF8A060201C00F017F804216E
S1133FB0E06000226068FFF7A5FFA06809210122E4
S1133FC0FFF7A0FFE06812210222FFF79BFF012305
S1133FD0A36113BD104A0000D13E0000F8B51D4B8B
S1133FE0071C1E68B269002A02D1301CFFF7C4FF07
S1133FF04836B4687368013B05D40C22A55E002DD5
S113400010D06834F7E73368002B06D1381C04213C
S1134010FFF79CFF3060002801D03668E9E70C23E5
S11340203B6016E001235B42E381201C0123A38152
S113403065662560A560656025616561A5615C3084
S1134040291C0822FFF7B9F96563A563A564E56433
S1134050201CF8BD104A0000F0B58B8991B0051CF6
S11340600C1C9A0725D40E23C95E002906DAA789F9
S113407080231F400FD0002740260EE001AA00F045
S113408079F90028F3DB029BF0273F02184A1F400E
S1134090BF187B425F418026F600281C311C00F0CB
S11340A089F800280CD1A3899A051FD4022213434E
S11340B0A381231C4733236023610123636115E03B
S11340C00C4B8022AB62A38920601343A38120613F
S11340D06661002F0AD00E23E15E281C00F05CF913
S11340E0002803D0A38901221343A38111B0F0BD9A
S11340F000E0FFFFD13E000008B5034B011C186827
S113410000F058F808BDC04664000020C9B2821807
S1134110904204D003788B4202D00130F8E70020AB
S11341207047000030B5002940D004390B68002BDB
S113413000DAC9181E4A1368141C002B02D14B6004
S1134140116033E099420FD208680A189A4205D1E7
S113415013685268C01808604A6000E04B60216030
S113416024E08A4203D8131C5A68002AF9D11D6836
S11341705C198C420BD1096869185818196090426F
S113418014D114685268091919605A600EE08C42FF
S113419002D90C23036009E008680C18944203D187
S11341A014685268001908604A60596030BDC046FE
S11341B02C01002070B50323CD1C9D430835061C3B
S11341C00C2D01D20C2501E0002D3FDB8D423DD3A7
S11341D0204B1C681A1C211C002913D00868431B9F
S11341E00DD40B2B02D90B60CC181EE08C4202D1EB
S11341F0636813601AE0486860600C1C16E00C1CCD
S11342004968E9E7144C2068002803D1301C00F009
S113421025F82060301C291C00F020F8431C15D020
S1134220C41C03239C4384420AD12560201C0B3008
S11342300722231D9043C31A0BD05A42E25008E0D0
S1134240211A301C00F00AF80130EED10C2333603F
S1134250002070BD2C0100202801002038B5074C37
S11342600023051C081C2360FEF7BCF9431C03D182
S11342702368002B00D02B6038BDC0467402002098
S113428038B50C1C0E25495F00F0ACF8002803DBA0
S1134290626D1318636503E0A289024B1340A38186
S11342A038BDC046FFEFFFFFF8B51E1C8B89051C07
S11342B00C1C171CDA0505D50E23C95E0022022347
S11342C000F07CF8A289054B281C1340A3810E2220
S11342D0A15E331C3A1C00F027F8F8BDFFEFFFFF86
S11342E038B50C1C0E25495F00F068F8A389421C00
S11342F003D1054A1340A38104E0802252011343F1
S1134300A381606538BDC046FFEFFFFF08B50E23EB
S1134310C95E00F01DF808BD0023C25C0133002A09
S1134320FBD1581E7047000038B5084C051C00200E
S11343302060081C111C1A1CFEF72AF9431C03D127
S11343402368002B00D02B6038BDC04674020020C7
S113435038B5074C0023051C081C2360FEF754F9EC
S1134360431C03D12368002B00D02B6038BDC0460A
S11343707402002038B5074C0023051C081C111CCE
S11343802360FEF745F9431C03D12368002B00D0BA
S11343902B6038BD7402002038B5074C0023051C7F
S11343A0081C2360FEF73AF9431C03D12368002B51
S11343B000D02B6038BDC0467402002038B5084CCC
S11343C0051C00202060081C111C1A1CFEF728F98B
S11343D0431C03D12368002B00D02B6038BDC0469A
S11343E07402002038B5084C051C00202060081C0D
S11343F0111C1A1CFEF7AAF8431C03D12368002BD6
S113440000D02B6038BDC046740200202E2E2F73BE
S113441072632F4153462F636F6D6D6F6E2F7574EA
S1134420696C732F696E746572727570742F696E1E
S1134430746572727570745F73616D5F6E766963B3
S11344402E630000417373657274696F6E20666138
S1134450696C65643A202573000000006370755F21
S11344606972715F637269746963616C5F736563B8
S113447074696F6E5F636F756E746572203E203071
S113448000000000417373657274696F6E20272504
S11344907327206661696C65642061742025733A12
S11344A025640D0A000000005465737420272573E9
S11344B027206661696C65642061742025733A2540
S11344C0753A0D0A0900000052756E6E696E672018
S11344D07465737420737569746520272573272E9A
S11344E02E2E0D0A0000000052756E6E696E672054
S11344F0746573743A2025730D0A0000536574744F
S1134500696E6720757020666978747572650D0030
S1134510546573742027257327206661696C65646C
S113452020647572696E6720272573273A202564F5
S11345300D0A00007365747570000000746573746F
S113454000000000436C65616E696E672075702021
S1134550666978747572650D00000000636C6561AE
S11345606E757000546573742073756974652027C3
S113457025732720636F6D706C6574653A2025750B
S11345802074657374732C202575206661696C75BD
S11345907265732C202575206572726F72730D0A13
S11345A00D0A00002E2E2F7372632F4153462F7372
S11345B0616D302F647269766572732F706F7274D7
S11345C02F706F72742E6300636F6E6669670000EC
S11345D0706F72740000000000080042000C00427A
S11345E0001000420014004200180042001C004267
S11345F02E2E2F7372632F4153462F73616D302F0C
S1134600647269766572732F736572636F6D2F734D
S11346106572636F6D2E630066616C7365000000E4
S1134620090A0B0C0D0E00002E2E2F7372632F41FE
S113463053462F73616D302F647269766572732FE0
S1134640736572636F6D2F736572636F6D5F696EEF
S1134650746572727570742E630000002E2E2F73B1
S113466072632F4153462F73616D302F64726976E4
S11346706572732F736572636F6D2F7573617274D6
S11346802F75736172742E63000000006D6F647582
S11346906C6500006D6F64756C652D3E6877000075
S11346A02E2E2F7372632F4153462F73616D302F5B
S11346B0647269766572732F736572636F6D2F759B
S11346C0736172742F75736172742E680000000038
S11346D02E2E2F7372632F4153462F73616D302F2B
S11346E0647269766572732F736572636F6D2F756B
S11346F0736172742F75736172745F696E7465721D
S1134700727570742E63000063616C6C6261636B1C
S11347105F66756E6300000074785F6461746100A5
S113472072785F6461746100D81C0000341D00005D
S1134730341D0000D21C0000D21C0000EE1C00003E
S1134740DE1C0000F41C0000221D0000BC1D000043
S11347501C1E00001C1E00004C1E0000AE1D0000AC
S1134760CA1D0000A01D0000D81D00000C1E000082
S11347702E2E2F7372632F4153462F73616D302F8A
S1134780647269766572732F73797374656D2F63C0
S11347906C6F636B2F636C6F636B5F73616D6432FB
S11347A0315F7232312F636C6F636B2E63000000D4
S11347B02E2E2F7372632F4153462F73616D302F4A
S11347C0647269766572732F73797374656D2F6380
S11347D06C6F636B2F636C6F636B5F73616D6432BB
S11347E0315F7232312F67636C6B2E6300000000FF
S11347F02147434C4B2D3E434C4B4354524C2E6269
S113480069742E5752544C4F434B00002E2E2F7375
S113481072632F4153462F73616D302F6472697632
S11348206572732F73797374656D2F70696E6D750E
S1134830782F70696E6D75782E6300002E2E2F739D
S113484072632F4153462F73616D302F6472697602
S11348506572732F73797374656D2F70696E6D75DE
S1134860782F70696E6D75782E680000F848000026
S1134870AC480000DC4900009C48000042756666B4
S1134880657220696E7465727275707420726561E8
S11348906420616E64207772697465000000000012
S11348A0F9290000000000007C480000000000001E
S11348B0E52A000000000000BC4800005472616E4C
S11348C0736665722073696E676C6520392D626941
S11348D074206368617261637465720053414D2092
S11348E0555341525420647269766572207465731D
S11348F0742073756974650000000000FD270000D2
S113490000000000EC4900002E2E2F7372632F75F7
S11349106E69745F746573742E63000054696D6509
S11349206F757420696E20726563657074696F6E4B
S1134930000000004661696C656420726563656906
S113494076696E6720737472696E672E2054583DC1
S1134950272573272C2052583D2725732700000054
S113496048656C6C6F20776F726C642100000000E6
S11349704661696C656420726563656976696E6712
S11349802073656E7420627974652E2054583D2519
S1134990642C2052583D25640000000054696D6564
S11349A06F757420696E2073656E642F726563651C
S11349B0697665004275666665722077726974650A
S11349C020626C6F636B696E672F72656164206926
S11349D06E7465727275707400000000000000004F
S11349E0E526000000000000B44900005472616E26
S11349F0736665722073696E676C6520382D626911
S1134A00742063686172616374657200430000001E
S1134A1004000020232D302B2000686C4C006566B8
S1134A2067454647003031323334353637383941FB
S1134A304243444546003031323334353637383911
S1134A40616263646566000000000000000000000D
S1134A500000000000000000000000000000000052
S1134A600000000000000000000000000000000042
S1134A700000000000000000000000000000000032
S1134A800000000000000000000000000000000022
S1134A900000000000000000000000000000000012
S1134AA00000000000000000F8B5C046F8BC08BCD7
S1134AB09E467047D9000000F8B5C046F8BC08BC53
S10B4AC09E467047B10000009E
S1134AC80100000000000000484A0000684A000095
S1134AD8884A0000000000000000000000000000F8
S1134AE8000000000C4A0000000000000000000064
S1134AF800000000000000000000000000000000AA
S1134B080000000000000000000000000000000099
S1134B180000000000000000000000000000000089
S10B4B2800000000040000205D
S903246D6B
