S018000055534152545F554E49545F54455354322E737265630D
S113000078220020E91D0000E51D0000E51D000028
S113001000000000000000000000000000000000DC
S1130020000000000000000000000000E51D0000CA
S11300300000000000000000E51D0000E51D0000B8
S1130040E51D0000E51D0000E51D0000E51D0000A4
S1130050E51D0000E51D0000E51D0000E51D000094
S1130060E51D000005090000150900002509000030
S1130070350900004509000055090000E51D000090
S1130080E51D0000E51D0000E51D0000E51D000064
S1130090E51D0000E51D0000E51D0000E51D000054
S11300A0E51D0000E51D0000E51D0000E51D000044
S11300B010B5064C2378002B07D1054B002B02D03A
S11300C0044800E000BF0123237010BD6800002035
S11300D0000000007C3F000008B5084B002B03D053
S11300E00748084900E000BF07480368002B03D015
S11300F0064B002B00D0984708BDC0460000000006
S11301007C3F00006C0000207C3F000000000000E9
S1130110094B196800290BD1EFF31080074A002816
S113012005D172B6BFF35F8F0549087001211170C4
S11301301A6801321A607047840000208800002089
S11301400000002037B5164B164C186823680028A9
S11301500BD0002B12D1144B01210093134B144AE2
S11301600193144D4C23A84708E0002B06D11248F4
S11301700E490F4A4C23114CA047FEE72368013B6C
S113018023602368002B09D10D4B1B78002B05D06D
S11301900C4B01221A70BFF35F8F62B637BDC046A5
S11301A08C00002084000020FF3800001439000077
S11301B0C8380000F5010000393900008928000022
S11301C0880000200000002013B500900191002851
S11301D008D00648064B9847041E04D10198009B9A
S11301E0984700E0009C201C16BDC04690000020EB
S11301F0A729000073B506AE2C4C0D1C02CEC168B5
S11302002B48A0472B4C321C23680196986806990A
S1130210294B9847206882689368013B9360826801
S1130220002B13DA936891698B420BDB13680D2260
S11302301A7020688268136819780A2903D0013378
S113024013600BE00D211D4B984707E013680D2246
S11302501A7023689B681A6801321A6020688268E1
S11302609368013B93608268002B13DA9368916969
S11302708B420BDB13680A221A70206882681368A9
S113028019780A2903D0013313600BE00A210B4BC0
S1130290984707E013680A221A7023689B681A6853
S11302A001321A600648291C064B98478928000029
S11302B05A390000640000205D2D00008D300000DC
S11302C090000020BF290000F0B5061C87B0344818
S11302D0B168344B98470022039205920492326825
S11302E0039B304D934250D2039A2F489300726877
S11302F09C582E4BE1681C60A8472268002A13D042
S11303002B4B2C4898472068211C2B4B9847071EE1
S11303100AD0E16829482A4A3B1CA847002F17DB6A
S1130320049B013304932CE06068211C224B984702
S1130330051E05D02148E168224A2B1C194FB847F5
S1130340A368002B08D1194A002313609D4216DAD2
S1130350059A0132059214E0154B1B489847A06892
S1130360211C154B9847071EEDD0002DEBD1E168F9
S11303701248164A3B1C0B4CA0473D1CE3E79D4228
S1130380CED1039B01330393A9E7059BB168009386
S11303900F48049BA847059A049BD01807B0F0BDEA
S11303A07839000089280000953900008C0000206D
S11303B081290000A8390000C9010000BC390000EF
S11303C0DF390000E5390000EA390000FF39000098
S11303D0073A0000F7B501AC01250027084E211C9F
S11303E03E206570A7702570B047064B8022D20569
S11303F01A600F20211C27706570B047F7BDC046F6
S113040009040000984400417FB5144B051C18688A
S11304100C1C00280BD0002912D1114A0121009292
S1130420104A41230192104E104AB04708E00029B7
S113043006D10F480B490D4A41230E4CA047FEE755
S113044003A980230B702378281C4B7063788B706E
S1130450A378CB70084B98477FBDC0468C00002022
S1130460FF380000463A0000F50100007C3A000025
S11304703939000089280000451D000010B54908DD
S1130480402488420CD800235C1C091AA4B281427F
S113049001D3231CF8E74024FF2B01D81380002448
S11304A0201C10BD00000000F0B58BB01C1C10AB6C
S11304B0071C187807923A1C42430D1C40238A42B9
S11304C000D98FE0002C3DD1211C3A1C231C4A4E3C
S11304D0B04706900020002102950F1C0D1C3F21FF
S11304E00394061C041C0591059A444B0120002129
S11304F09847221C2B1C8446069812196B41141C25
S11305001D1C084203D001222243141C1D1C039A03
S1130510AA420CD802D1029BA34208D860463043B9
S11305203943029A039B061CA41A9D410F1C059B88
S1130530013B0593D8D22F4B2D4A921BBB41160C7D
S11305401B044BE00026012C49D1490FED00089112
S11305500995311C3A1C331C274CA0470290039187
S1130560F7B20697002705973F2700240025019737
S1130570019A224B012000219847099F221C074021
S1130580BC46089F2B1C12196B4139406746141C4A
S11305901D1C394303D001222243141C1D1C039942
S11305A0A9420AD802D1029AA24206D8059F02990A
S11305B0039A0743641A95410597019F013F0197E8
S11305C0D6D2059F0E4ABB1BDB08934204D90136E1
S11305D0082EC5D1402305E0069F7E031E43079FD6
S11305E000233E80181C0BB0F0BDC046C046C04678
S11305F00000000001000000D5270000BD27000016
S1130600FF1F0000C046C04637B50E4B041C1A78C5
S11306101D1C002A01D000290CD001A913200A4B6B
S11306200C7098471320094B984701236C702B706A
S1130630002006E05A781D20141B621E9441644277
S113064020403EBDEC000020911B0000B51A0000C4
S1130650404A13B5031C081C934227D006D83E4ACF
S113066093420DD03D4A934214D04FE03C4A93420A
S113067034D03C4A93423DD03B4A934246D121E098
S1130680032943D802F040F8585A0204374860E07E
S113069037485EE0032939D802F036F802520406DE
S11306A0032056E0334854E0334852E003292DD860
S11306B002F02AF80248040630484AE0304848E08C
S11306C0304846E0032921D802F01EF8023E040611
S11306D02D483EE02D483CE02D483AE0032915D84A
S11306E002F012F8023404062A4832E02A4830E0C4
S11306F02A482EE0032909D802F006F8022A040643
S1130700274826E0274824E0274822E0274B284AA8
S113071018682849002809D0274B0191009301212A
S113072086238B40254CA047002012E086232448D2
S11307305B00244CA047FEE723480AE0234808E076
S1130740234806E0234804E0234802E0234800E06D
S1130750234816BD0010004200080042000C00426D
S113076000180042001C004200140042030006006E
S11307700300070003001E0003001F00030008001D
S113078003000A0003000B00030010000300120022
S11307900300130003000C0003000E0003000F000D
S11307A00300160003001800030019008C00002049
S11307B0C03A0000E83A0000FF380000F5010000EC
S11307C039390000892800000300040003000500F3
S11307D003000100030009000300110003000D00E1
S11307E00300170070B588B002AA1449131C70C91D
S11307F070C370C970C3002399005158884201D155
S1130800D8B218E00133062BF6D10D4B0D4A186807
S11308100D49002809D00D4B019100930121932328
S11308208B400B4CA047002005E0932309485B0054
S1130830094CA047FEE708B070BDC046A83A0000C6
S11308408C000020C03A0000E83A0000FF380000A5
S1130850F5010000393900008928000013B5094B5F
S1130860094A18680949002807D0094B01910093E7
S113087001214123074CA04713BD07484123074CDE
S1130880A047FEE78C000020F43A0000E83A00009C
S1130890FF380000F5010000393900008928000004
S11308A070B50A4A1378141C094A002B0AD1094D61
S11308B00026D550084D5D1904332E60182BF6D14F
S11308C0012323708000115070BDC046EE0000204B
S11308D0F00000205D0800002C01002013B5062262
S11308E0041C05496846054B9847201C044B98474F
S11308F06B46185616BDC046EE3A00006528000047
S1130900E507000008B5024B00201B68984708BDA6
S1130910F000002008B5024B01205B68984708BD31
S1130920F000002008B5024B02209B68984708BDE0
S1130930F000002008B5024B0320DB68984708BD8F
S1130940F000002008B5024B04201B69984708BD3D
S1130950F000002008B5024B05205B69984708BDEC
S1130960F000002073B5284D041C286800280BD023
S1130970002C12D1254B01210093254B254A0193CC
S1130980254E264BB04708E0002C06D124482049C8
S1130990204A224B234CA047FEE7286800280BD0AE
S11309A0002C12D1194B01210093194B194A0193C0
S11309B0194E1D4BB04708E0002C06D118481449C5
S11309C0144A194B174CA047FEE7286823680028EF
S11309D00BD0002B12D10D4B01210093134B0D4A68
S11309E001930D4E124BB04708E0002B06D10C4882
S11309F00E49084A0E4B0B4CA047FEE72368DB69FF
S1130A00002BCAD173BDC0468C000020FF38000003
S1130A10533B0000263B0000F5010000FE020000ED
S1130A203939000089280000E90200005A3B00001F
S1130A30EA020000F0B5AA4E071C306893B0059195
S1130A40141C00280CD0002F14D1A64B01210093B4
S1130A50A54BA64A019383238B40A54DA84709E0E3
S1130A60002F07D18323A3489F49A04A5B00A24CCF
S1130A70A047FEE7306800280DD00599002915D15C
S1130A80984B012100939D4B984A01930823FF330F
S1130A90974DA8470AE0059A002A07D108239548EC
S1130AA09649924AFF33944CA047FEE730680028E9
S1130AB00CD0002C14D18B4B01210093904B8B4A0A
S1130AC0019384238B408A4DA84709E0002C07D169
S1130AD0842388488A49854A5B00874CA047FEE7FF
S1130AE0059B01253B60181C864B984705990522F8
S1130AF00B6803922B4200D072E10A6802231A4069
S1130B001C2304920393002A00D069E17E4B821CCB
S1130B10196A0391291C91400A1C03990A431A6219
S1130B20221C2D32069213780CA90B70031C14336B
S1130B30DBB2181C0393754B98470398744B984782
S1130B40069B04991878734B9847E37A30687B7155
S1130B50631DDB7FBB71A31DDB7FFB71E37E3B72F7
S1130B60237F7B723B6800280BD0002B12D15D4B96
S1130B70291C0093684B5D4A01935D4D3E23A847B1
S1130B8008E0002B06D15B486349584A3E235A4C7F
S1130B90A047FEE739685B4B081C049198470EABED
S1130BA000221A80268A80231430DB019E4211D051
S1130BB006D880239B019E4213D1102501220AE00E
S1130BC0C023DB019E4208D080231B0203259E42E2
S1130BD001D006E00825039206E0012308250393CB
S1130BE002E00021102503912268E36861690893FB
S1130BF007920991227EE31D0A92DB7F62680B93C0
S1130C00231C0833002A10D0802149058A4223D1AD
S1130C10DB7F002B20D1414BC0B2256A98470EAA36
S1130C20011C3F4B281C984712E0DB7F216A069188
S1130C30002B03D00095081CA16A05E0C0B2374B15
S1130C409847011C069800950EAA039B354DA847AA
S1130C500390002800D0C3E0637E002B02D0A37E63
S1130C60049A9373304B381C98470EAB1B88049935
S1130C70079A089D8B81099B154361681D430A9A55
S1130C800D430B99130235431D434B071D43231C8E
S1130C900833DB7F002B01D104231D43667E237FB1
S1130CA0B6025B021E43E27AA37A13431E43637FB8
S1130CB022891B021E43631DDB7F5B041E43A31DAD
S1130CC0DB7F1B041E43E37EFF2A2FD0002B02D0C0
S1130CD0A023DB0401E080235B041D4316432AE0C8
S1130CE08C000020FF380000533B0000653B0000EF
S1130CF0F50100003939000089280000623B00003A
S1130D00463A0000E507000000040040911B000083
S1130D10B51A0000090600005A3B0000051C00003B
S1130D207D040000A904000065090000002B02D026
S1130D308023DB041D43231C2C331B78002B03D19D
S1130D40294B9B789A0701D580231D43274B381CD8
S1130D5098470499254A4E60381C9047049B00210B
S1130D601D600DAD8023226B03912B706970636B42
S1130D70E970A970A16BE46B0EAEF4600E9273601F
S1130D80B1600024A300F058E1B2002802D1059814
S1130D90174B9847421C05D02870000CC0B2291C80
S1130DA0144B98470134042CECD13A1C0023303204
S1130DB0FB85FB603B617B61BB61FB613B62BB62AA
S1130DC07B62BB85937013705370D37038680A4B81
S1130DD098470A4B0A49041C98470A4BA400E75059
S1130DE0039813B0F0BDC04600200041650900001F
S1130DF051060000451D0000E5070000A1080000A1
S1130E00D91400002C010020F7B5254B041C1868E8
S1130E100E1C1D1C00280CD0002C14D1214B0121C8
S1130E200093214B214A01938823FF33204FB84775
S1130E3009E0002C07D188231E481B491B4AFF33B5
S1130E401D4CA047FEE72868236800280CD0002B1F
S1130E5014D1144B01210093184B144A0193C42359
S1130E608B40134DA84709E0002B07D1C423114838
S1130E7012490E4A5B00104CA047FEE7E37925684F
S1130E801C20002B0BD0E38D0520002B07D1201C48
S1130E900B4B98472E852B7E9A07FCD50020FEBD70
S1130EA08C000020FF380000533B0000653B00002D
S1130EB0F501000039390000892800005A3B000080
S1130EC065090000F7B5394B051C18680F1C1C1C7C
S1130ED000280CD0002D14D1354B01210093354B43
S1130EE0354A0193E4238B40344EB04709E0002D8A
S1130EF007D1E42332482F492F4A5B00314CA047E5
S1130F00FEE720682B6800280CD0002B14D1284B56
S1130F10012100932C4B284A0193CA23FF33274C09
S1130F20A04709E0002B07D1CA2325482649224AB5
S1130F30FF33244CA047FEE7AB792C681C20002B20
S1130F4032D0AB8D0520002B2ED1237E04263342D4
S1130F502AD01E4B281C9847638BDBB29A0620D0FC
S1130F600222134202D062831A201DE0334202D0CF
S1130F7066831E2018E00122134202D062831320EC
S1130F8012E01022134204D0638B42201A4362837E
S1130F900AE02022134204D0638B41201A43628367
S1130FA002E0238D00203B80FEBDC0468C00002063
S1130FB0FF380000533B0000653B0000F5010000D2
S1130FC039390000892800005A3B000065090000F7
S1130FD0F0B5384E041C306885B00F1C151C002871
S1130FE00BD0002C12D1344B01210093334B344AE3
S1130FF00193344E344BB04708E0002C06D13348FB
S11310002E492F4A304B324CA047FEE7294E236825
S1131010306800280BD0002B12D1274B01210093FC
S11310202C4B274A0193274E2B4BB04708E0002B4B
S113103006D126482749224A274B254CA047FEE7DC
S11310401720002D34D0E3791C20002B30D02668E3
S1131050224B201C03969847002380225202039EB1
S1131060317EC80703D4013A002AF8D11FE062791F
S11310705E1CB6B2F95C012A04D1BA5D02331202D5
S113108011439EB2013D201C154BADB29847002D73
S113109002D180235B0204E0331CDEE7013B002B1A
S11310A005D0039E327E9007F8D5002000E0122080
S11310B005B0F0BD8C000020FF380000533B000059
S11310C0653B0000F50100003E02000039390000D4
S11310D0892800005A3B00003F0200006509000017
S11310E0090E0000F0B5204F041C386885B0039148
S11310F0161C00280BD0002C12D11C4B012100938C
S11311001B4B1C4A01931C4D4023A84708E0002CAC
S113111006D11A481649174A4023194CA047FEE73E
S11311203868236800280BD0002B12D10F4B012103
S11311300093144B0F4A01930F4F4123B84708E023
S1131140002B06D10D480F490A4A41230C4CA047F5
S1131150FEE7039D2368E685A562052233342270E9
S113116001229A7505B0F0BD8C000020FF38000004
S1131170533B0000923B0000F501000039390000A8
S1131180892800005A3B0000F0B5264F041C38683B
S113119085B00391161C00280BD0002C12D1224BD1
S11311A001210093214B224A0193224D5E23A8473B
S11311B008E0002C06D120481C491D4A5E231F4C20
S11311C0A047FEE73868236800280BD0002B12D113
S11311D0154B012100931A4B154A0193154F5F23B8
S11311E0B84708E0002B06D113481549104A5F237D
S11311F0124CA047FEE7039D221C236832320521CE
S1131200A6856562117004229A75227A002A01D09B
S113121020229A75627A002A01D008229A7505B0B4
S1131220F0BDC0468C000020FF380000533B000096
S1131230923B0000F50100003939000089280000C4
S11312405A3B0000F7B5204F041C38680D1C161CCF
S113125000280BD0002C12D11C4B012100931C4BF5
S11312601C4A01931C4F9023B84708E0002C06D178
S11312701A481749174A9023194CA047FEE7124F02
S1131280386800280BD0002D12D1104B0121009397
S1131290144B104A0193104F9123B84708E0002DD6
S11312A006D10E480F490B4A91230D4CA047FEE787
S11312B0B31C9B00E3185D6001233034B3401E1C53
S11312C023781E432670F7BD8C000020FF380000F1
S11312D0533B0000923B0000F50100003939000047
S11312E089280000C93B000073B5144B041C18681E
S11312F00D1C00280BD0002C12D1114B012100939E
S1131300104B114A0193114EA823B04708E0002C5A
S113131006D10F480B490C4AA8230E4CA047FEE700
S1131320AB1C9B00E31800225A6001233034AB400D
S11313301D1C2378AB43237073BDC0468C00002072
S1131340FF380000533B0000923B0000F501000011
S11313503939000089280000F7B5264E041C30688E
S11313600D1C171C00280CD0002C14D1224B012179
S11313700093224B224A01938D238B40214EB04788
S113138009E0002C07D18D231F481C491C4A5B002F
S11313901E4CA047FEE7174E306800280CD0002DE5
S11313A014D1154B01210093194B154A01931C23A9
S11313B0FF33144EB04709E0002D07D11C23124817
S11313C013490F4AFF33114CA047FEE71720002FA3
S11313D00ED0E68D0520B6B2002E09D1E3791C208B
S11313E0002B05D0201C291C3A1C0A4B9847301CA2
S11313F0FEBDC0468C000020FF380000533B0000B7
S1131400923B0000F50100003939000089280000F2
S1131410D73B0000E5100000F7B5264E041C3068E9
S11314200D1C171C00280CD0002C14D1224B0121B8
S11314300093224B224A0193A9238B40214EB047AB
S113144009E0002C07D1A9231F481C491C4A5B0052
S11314501E4CA047FEE7174E306800280CD0002D24
S113146014D1154B01210093194B154A01935423B0
S1131470FF33144EB04709E0002D07D1542312481E
S113148013490F4AFF33114CA047FEE71720002FE2
S11314900ED0A3791C20002B0AD0A68D0520B6B24D
S11314A0002E05D1201C291C3A1C0A4B9847301CDD
S11314B0FEBDC0468C000020FF380000533B0000F6
S11314C0923B0000F5010000393900008928000032
S11314D0DF3B000089110000F7B5664B8000C4585B
S11314E02568654B1868236800280BD0002B12D19F
S11314F0624B01210093624B624A0193624E634B3B
S1131500B04708E0002B06D161485D495D4A5F4B56
S1131510604CA047FEE72368DB69002BE1D12F7EF6
S1131520AB7D221C1F40231C313330321B781678CC
S11315301E4001231F421ED0E28D002A1AD0A36A46
S1131540591C1A78A1626179D2B2012904D159785F
S1131550023309020A43A362D205D20D2A85E38D20
S1131560013B9BB2E385002B05D101232B7502239C
S1131570AB7500E02B7502231F4209D02B75231C89
S1131580002233331A70F10702D5201CE368984710
S113159004231F424ED0A28D002A4AD06A8B3F23D7
S11315A0D2B21340110701D537231340002B1ED0AC
S11315B002221A2113420FD104221E2113420BD1FD
S11315C001221321134207D110224221134203D1D5
S11315D02022134206D04121231C323319706B8B15
S11315E01A436A83730725D5201C61691FE02A8D7D
S11315F0616AD205D20DD3B20B70636A591C616261
S11316006179012904D1120A5A70636A0133636251
S1131610A38D013B9BB2A385002B0BD104222A7519
S1131620221C32321370B30704D52169201C884769
S113163000E02B7510231F4206D02B752B761E421B
S113164002D0201CE369984720231F4206D02B7543
S11316502B76310702D5201CA369984708231F4223
S113166006D02B752B76B10602D5236A201C984729
S1131670F7BDC0462C0100208C000020FF3800007C
S11316805A3B0000263B0000F5010000EA0200007E
S1131690393900008928000010B5082832D801F033
S11316A033F80831310505130B1629008020000298
S11316B02BE0164B186928E0154B186A154B80056A
S11316C0800FC340181C20E0104B58691DE00F4CDC
S11316D002232068184018D00D4BDB68DA06FBD5CE
S11316E023685A0710D50C4B00209847A3689BB277
S11316F058430AE0094B00201B785A0705D5034BD1
S1131700D86802E0002000E0054810BD0801002070
S11317100008004000127A00051C00005008004038
S1131720006CDC0270B50D4B45781E6A8178047834
S11317300122402086431540AD01301C0A40284355
S1131740D10180229043021C0A4305480321214011
S1131750090202400A431A6270BDC04600080040F4
S1131760FFFCFFFF13B508283CD800F0CDFF113B68
S11317703B510B17051D3500264B02211A6A0A43FB
S11317801A6245E0234B02219A690A439A613FE0B9
S1131790204B02211A8A0A431A8239E01D4B022186
S11317A09A8A0A439A8233E01B4B02211A680A433D
S11317B01A60196880229143164A89B29184101CD8
S11317C0C168144ACC06FBD59968D1625968916204
S11317D01B689BB293841BE0104B02211A780A43C6
S11317E01A7015E00E4B0F4A18680F49002809D0EB
S11317F00E4B019100938E2301219B000C4CA047BA
S1131800172006E08E230B489B000B4CA047FEE7F5
S1131810002016BD000800400801002044080040D4
S11318208C0000202D3C0000E83A0000FF38000046
S1131830F501000039390000892800007FB51A4BF2
S1131840C222D2009A60194B1E215A6801AD8A4304
S11318505A6001232B700024E0B2291C144B01347C
S11318609847252CF8D100246B4601269E705C70A5
S11318701C7068460F4B98470F4B062098470F4B38
S113188098470F4B291C1C725C729C7206232B70A8
S1131890201C0C4B6E606C702C726C729847201C70
S11318A0094B98477FBDC0460008004000400041F6
S11318B0911B00002517000065170000D9180000CF
S11318C000040040F9180000ED190000014B58789D
S11318D0C0097047000C0040054B08219A690A436F
S11318E09A61044B01221A701A78D107FCD470470C
S11318F000040040000C0040F7B5304B061C18688B
S11319000D1C00280BD0002912D12D4B012100936E
S11319102C4B2D4A01932D4C7523A04708E0002938
S113192006D12B482749284A75232A4CA047FEE7AD
S11319302C786B782402371C3443002B02D080238C
S1131940DB021C436B7A002B02D080231B031C4355
S11319506B68012B13D95F1E1F400222002F09D18F
S11319609A4202D201375200FAE73F0280233743FA
S11319705B0303E01F02802337439B021C432B7A43
S1131980002B02D080239B031C43134DA84700283F
S1131990FBD1124B9847124B1E70A8470028FCD16C
S11319A0104EB760A8470028FCD1726880235B0200
S11319B013401C4374600C4B9847F7BD8C00002007
S11319C0FF380000463A00006B3C0000F5010000BF
S11319D03939000089280000CD18000011010000E9
S11319E0080C0040000C00404501000038B5051CFF
S11319F0094CA0470028FBD1084B9847084B1D70A1
S1131A00A0470028FCD1074B8022596852020A43A0
S1131A105A60054B984738BDCD18000011010000ED
S1131A20040C0040000C004045010000F7B5061C02
S1131A30184FB8470028FBD1174B9847174B1E7017
S1131A40B8470028FCD1164D164B6868C004C00E78
S1131A509847124B041C1E706B68DB02DB0F01936A
S1131A60114B1E70B8470028FCD1AD680F4B984746
S1131A70019B2D0AADB2002B07D1012D07D9201CE3
S1131A80291C0B4B9847041C01E00135EC40201C39
S1131A90FEBDC046CD18000011010000040C00403A
S1131AA0000C004099160000080C0040450100009D
S1131AB01D27000010B5074B041C9847064B8022D5
S1131AC01C70064BD20159880A435A80044B98472C
S1131AD010BDC04611010000020C0040000C004083
S1131AE04501000037B51D4B041C98471C4B1C7066
S1131AF01C4B1D4C18686388DB0B00280CD0002B92
S1131B0014D01A4B01210093194B1A4A01939823BC
S1131B10FF33194DA84709E0002B07D09823174835
S1131B201349144AFF33164CA047FEE76188154B4E
S1131B30628809051A4062806088134A090F0240CE
S1131B406280181C6288084B5504FBD45A88090229
S1131B5002400A435A800D4B984737BD11010000DB
S1131B60020C00408C000020000C0040FF380000F4
S1131B70A83C00006B3C0000F5010000393900006E
S1131B8089280000FFF0FFFFFFBFFFFF45010000B1
S1131B9073B5134B051C18680C1C00280CD00029C5
S1131BA014D1104B012100930F4B104A019362236F
S1131BB0FF330F4EB04709E0002907D162230D48D7
S1131BC009490A4AFF330C4CA047FEE72478281C35
S1131BD00A4B240298472C43094BA4B25C8073BD82
S1131BE08C000020FF380000463A00006B3C0000E7
S1131BF0F50100003939000089280000E51A0000C9
S1131C00000C004010B5074B041C9847064B1C7091
S1131C10064B5C88064B2405240F9847201C054B73
S1131C20984710BD11010000020C0040000C004058
S1131C30450100002D1A0000F7B5394F051C38681E
S1131C400E1C141C00280BD0002D12D1354B012181
S1131C500093354B354A0193354F4123B84708E08B
S1131C60002D06D133483049304A4123324CA04735
S1131C70FEE72B4F386800280BD0002C12D1294BDB
S1131C80012100932D4B294A0193294F4223B84740
S1131C9008E0002C06D127482849244A4223264C30
S1131CA0A047FEE7E378002B1BD12278802A03D0DB
S1131CB0802312065B021343627802218A4309D10E
S1131CC0A278002A02D18022920201E0C022D2022C
S1131CD013436E606278013A012A04D8184A13400B
S1131CE001E06E600023A022B1B2D2050A431A4378
S1131CF0AA62D022310C12060A431A43AA62E2787D
S1131D00002A0CD15A0305D5A378012B01D1AE6169
S1131D1000E06E616378013B012B00D8AE60F7BD33
S1131D208C000020FF380000A03A0000C33C0000F3
S1131D30F50100003939000089280000463A000006
S1131D40FFFFFBFF73B5C309041C0D1C002B04D15A
S1131D504009114BC001C01816E0104B104A186816
S1131D60104B002809D0104901930091B12301219F
S1131D708B400E4EB047002006E0191CB1230C48DE
S1131D805B000C4CA047FEE71F210C4001212A1CDC
S1131D90A140094B984773BD004400418C000020CA
S1131DA04D3A0000E83A0000FF380000F501000059
S1131DB03939000089280000391C000070470000F0
S1131DC008B5044B9847044B9847044B9847044B79
S1131DD0984708BD3D180000D5030000BD1D000054
S1131DE0BD1D0000FEE7000070B5204B02225A62C0
S1131DF01F4B0321D8780C2488431043D870DD7816
S1131E000820A5430543DD701A4B30269D7BB5435E
S1131E10202635439D739D7BA54328439873987B67
S1131E2088430243144915489A73884201D0002319
S1131E3001E0134B07E0134CCA18A242F9D2C4586C
S1131E4004331460F7E7104A191D043B934203D28C
S1131E5000221A600B1CF6E70C4A0D4B7F218A43C3
S1131E609A600C4B98470C4B9847FEE7FC70004176
S1131E700050004100480041000000207C3F000069
S1131E806C000020680000207402002000000000A4
S1131E9000ED00E019280000A925000070B50E1C13
S1131EA0141C00280FD1151C3119491B002D06DD07
S1131EB0064B013D1868064B1B689847F4E7E0435E
S1131EC0C017204001E00120404270BD4C010020B9
S1131ED044010020013870B50D1C02280DD88E185D
S1131EE00C1C601BB4420AD0054B21781868054BC2
S1131EF001341B6898470028F3DA0120404270BD82
S1131F004C01002048010020054B1A68002A01D129
S1131F10044A1A601A6810181860101C7047C046EA
S1131F2020010020782200200120404270478023B5
S1131F309B0100204B6070470120704700207047D0
S1131F40014B01221A7070478401002038B5051C2A
S1131F500C1C281C211C024B98470028F9D138BDC1
S1131F60090E000030B587B06C460023E38253218C
S1131F7016340C4B051C0C4898470C4B0C48211C80
S1131F8098472388532B0BD00A4A23880092532264
S1131F9001920293281C0121074AC423074CA0473D
S1131FA007B030BD090E0000FC010020C50E000082
S1131FB050010020573D0000443D0000F5010000A1
S1131FC073B56C4606340023061C0D1C2380301C9C
S1131FD0211C034B98470028F9D123882B7073BD2B
S1131FE0C50E000073B5284D041C286800280BD0CA
S1131FF0002C12D1254B01210093254B254A019336
S1132000254E264BB04708E0002C06D12448204931
S1132010204A224B234CA047FEE7286800280BD017
S1132020002C12D1194B01210093194B194A019329
S1132030194E1D4BB04708E0002C06D1184814492E
S1132040144A194B174CA047FEE728682368002858
S11320500BD0002B12D10D4B01210093134B0D4AD1
S113206001930D4E124BB04708E0002B06D10C48EB
S11320700E49084A0E4B0B4CA047FEE72368DB6968
S1132080002BCAD173BDC0468C000020FF3800006D
S1132090533B0000263B0000F5010000FE02000057
S11320A03939000089280000E90200005A3B000089
S11320B0EA02000037B5234B041C186800280CD032
S11320C0002C14D1204B01210093204B204A019372
S11320D0C7239B001F4DA84709E0002C07D1C72345
S11320E01D481A491A4A9B001C4CA047FEE7FF22D0
S11320F0228180239622DB05920123602262002341
S1132100611D01226360A372E372CA77A11DCA77BD
S1132110E21DD3770132D37788225203E260221C76
S11321202C32A36213705370132223636363A3637B
S1132130E36363612382E376237623776376A2766F
S1132140637737BD8C000020FF380000463A00005A
S1132150263B0000F5010000393900008928000001
S113216073B5244B041C18681D1C00280CD0002CCB
S113217014D1214B01210093204B214A0193DD23EB
S11321809B00204EB04709E0002C07D1DD231E48F8
S11321901A491B4A9B001D4CA047FEE72868236888
S11321A000280BD0002B12D1134B01210093184BA4
S11321B0134A0193134D174BA84708E0002B06D18F
S11321C0114813490E4A134B104CA047FEE72568EB
S11321D0114B281C98471F23184001238340181CC7
S11321E00E4BD867201C0E4B98472B680222934352
S11321F02B6073BD8C000020FF380000533B0000AF
S1132200263B0000F5010000393900008928000050
S11322105A3B000075030000DD08000004E100E003
S1132220E51F000073B5244B041C18681D1C00280E
S11322300BD0002C12D1214B01210093204B214AB9
S11322400193214E214BB04708E0002C06D12048D1
S11322501B491C4A1D4B1F4CA047FEE728682368F6
S113226000280CD0002B14D1144B012100931A4BDD
S1132270144A0193D6239B00134DA84709E0002B71
S113228007D1D623124814490E4A9B00114CA0478B
S1132290FEE72568114B281C98471F23184001238B
S11322A08340181C0E4B1860201C0E4B98472B685B
S11322B0022213432B6073BD8C000020FF38000002
S11322C0533B0000263B0000F501000057030000CB
S11322D039390000892800005A3B0000DD0800005D
S11322E000E100E0E51F0000F0B5274C89B005903F
S11322F0264F201CB847264A0123D3722549264B72
S1132300201C9847254E201CB047254D281CB84753
S1132310244A0123D37224491F4B281C9847281CA4
S1132320B047B326281C76006D461E35311C1F4B62
S11323309847291C1E4B201C98472B88144DB342E8
S113234009D01C4A019600920293059801211A4A69
S1132350E8231A4EB047201C0026B8470D49EE72F8
S11323602A1C201C0C4DA847201C0C4A90470C4CDE
S1132370201CB8470B4A0C49201CD672A847201CC5
S1132380064B984709B0F0BD5001002061210000C0
S11323903002002000180042350A00002522000007
S11323A0FC010020BC01002000080042090E0000CE
S11323B0C50E0000573D0000443D0000F50100003B
S11323C0F0B58FB006AD002705902C490D222C4B9B
S11323D0281C9847391C09222A4B0BA80A979847AE
S11323E0294E2A49301C0122294B9847331C31338A
S11323F01A7802210A431A70264B0AAC1F70211C5A
S11324000D22254B301C98470D22244B2448291CAF
S11324109847244B1F4A1178013B9BB2002902D1F3
S1132420002BF8D101E0002B08D11F4B01210093B0
S1132430902305981D4A8B401D4FB847331C3133F8
S11324401A7802218A431A70301C0121194B9847CB
S1132450194B281C211C9847002300B2237398426F
S11324600AD0164B029400932E230195059801215E
S11324700E4AFF330E4CA0470FB0F0BDF63D0000EE
S1132480652800007728000050010020411F00004B
S1132490451200008401002019140000D10F00002F
S11324A0FC010020FFFF0000B73D0000443D000098
S11324B0F5010000E9120000E92A0000CC3D00000B
S11324C0F0B58FB006AD0027059027490D22274BA4
S11324D0281C9847391C0922254B0BA80A979847B2
S11324E0244E2549301C0122244B9847331C313398
S11324F01A7802210A431A70214B291C1F700D22DD
S1132500204B0AAC204898470D22204B301C211C3C
S113251098471F4B1A4A1178013B9BB2002902D1FC
S1132520002BF8D101E0002B08D11A4B01210093B4
S1132530AB230598184A8B40184EB047184B281CFB
S1132540211C9847002300B2237398420AD0154BEC
S113255001210093B0230294019505980E4A8B4003
S11325600E4CA0470FB0F0BDF63D000065280000FA
S11325707728000050010020411F00004512000090
S11325808401002059130000FC01002019140000EC
S1132590FFFF0000033E0000443D0000F501000081
S11325A0E92A0000CC3D0000F0B595B004AC384BEE
S11325B09847201C374DA847374B384E2363384B78
S11325C0384A636396231B022362374B80201E60C4
S11325D0364B40031A60364A364B01256D421A6069
S11325E0E060221C301C3449344BA563E5639847F2
S11325F0334F00213B689868324B98473B68002171
S11326005868304B9847301C2F4FB8472F4E2149FC
S1132610301C884780235B03F360B563F5632C4B60
S1132620E1256D02336335622A4B2B4D321C7363F3
S11326302A49224B281C9847281CB847284D15497D
S1132640281C884780235B03EB60264B264E2B63B4
S1132650264BE1206B63264B4002AB63254B2A1CBF
S1132660EB6328622449154D301CA847301CB84739
S1132670224B221C23CB23C21B6801A81360042312
S113268001931F4B029403931E4B9847FEE7C046E9
S1132690C11D0000B52000000200160088010020C2
S11326A0020017004D1F00004C01002048010020CB
S11326B0C11F00004401002000140042350A00003C
S11326C0640000209529000025220000300200202B
S11326D003002800030029005001002000180042D4
S11326E0BC01002003000400FC01002003000500DD
S11326F0030006000300070000080042F43C000049
S11327001B3E0000C902000002B47146490849009A
S1132710095C49008E4402BC7047C046002934D08D
S11327200123002210B488422CD301242407A1429F
S113273004D2814202D209011B01F8E7E400A1425C
S113274004D2814202D249005B00F8E7884201D3F7
S1132750401A1A434C08A04202D3001B5C082243CF
S11327608C08A04202D3001B9C082243CC08A04240
S113277002D3001BDC082243002803D01B0901D02C
S11327800909E3E7101C10BC7047002801D00020A1
S1132790C04307B4024802A14018029003BDC046DA
S11327A0190000000029F0D003B5FFF7B9FF0EBCF3
S11327B04243891A1847C0467047C0469140031CDB
S11327C090409C46203A9340194352426346D3407A
S11327D0194370479C460304F0B51B0C17043F0CC7
S11327E0150C1E1C041C000C7E436B4347434543DD
S11327F0FB18300C1818874202D980235B02ED18AD
S1132800030CED1863465C434A433604360CA118A6
S1132810000480194919F0BD70B50E4B0E4D00240B
S1132820ED1AAD101E1CAC4204D0A300F358984717
S11328300134F8E701F092FB084B094D0024ED1A2E
S1132840AD101E1CAC4204D0A300F35898470134C9
S1132850F8E770BD683F0000683F0000683F000073
S11328606C3F000010B50023934203D0CC5CC454E9
S11328700133F9E710BD031C8218934202D019708A
S11328800133FAE7704700000FB40B4B13B51C6813
S1132890002C05D0A369002B02D1201C00F0CAFD36
S11328A005ABA168201C049A019300F04FF916BCF3
S11328B008BC04B01847C0466400002070B5051C6D
S11328C00E1C002804D08269002A01D100F0B2FD58
S11328D0AC68A3891A0702D52369002B19D1281CD7
S11328E0211C00F02BFC002813D00120404245E0BD
S11328F03178002B1BDAA269934211DA281C221CBE
S113290000F0C4FB013043425841C0B20028ECD16E
S11329100136A3683278013BA360002AE8D10CE0B9
S113292023681970236819780A2903D1E6E7226815
S11329301170236801332360EAE7002B17DAA269D8
S1132940934208DB22680A231370236819780A2942
S113295011D1281C01E0281C0A21221C00F096FB3E
S1132960013043425841C0B2002806D0BDE7226876
S11329700A2313702368013323600A2070BD00000A
S113298008B5034B011C1868FFF798FF08BDC04643
S11329906400002008B54A424A4180235200DB000B
S11329A000F01CF808BDF0C041464A4653465C4658
S11329B06D4676467EC02838F0C800207047103037
S11329C07CC890469946A246AB46B54608C8283806
S11329D0F0C8081C00D1012018470000F7B51E1CE0
S11329E03C4B041C1D680F1C0192002D05D0AA69E4
S11329F0002A02D1281C00F01DFD374B9C4201D156
S1132A006C6808E0354B9C4201D1AC6803E0344B60
S1132A109C4200D1EC68019B022B57D8002E55DB59
S1132A20281C211C00F086FC00236360A361A38999
S1132A301A0603D5281C216900F0D2FDA38983223C
S1132A409343A381019B022B13D0002F25D1002E89
S1132A5001D18026F600301C00F0ACFD071E18D111
S1132A608020C00000F0A6FD071E10D101204042C6
S1132A7000E00020A38902221343A3810023A36062
S1132A80231C4733236023610123636120E08026F4
S1132A90F600A38980221343A381019A012A04D159
S1132AA0A3891343A3817342A3610E4B0020AB623D
S1132AB0A3892760276166611A0709D50322134099
S1132AC05A4253415B421E40A66001E0012040424D
S1132AD0FEBDC04664000020FC3E00001C3F000018
S1132AE03C3F00008D33000002780B780130013147
S1132AF0002A01D09A42F7D0D01A7047936810B5D3
S1132B00013B9360002B05DA9469A34208DBCBB246
S1132B100A2B05D01368581C10601970C8B201E064
S1132B2000F0B4FA10BDF8B5061C0F1C141CD5181F
S1132B30AC4208D02178301C3A1CFFF7DFFF013487
S1132B40431CF5D100E00020F8BD0000F0B59FB0B3
S1132B50061C0F1C03920593002804D081690029E8
S1132B6001D100F067FC754B9F4201D1776808E002
S1132B70734B9F4201D1B76803E0724B9F4200D16F
S1132B80F768BB891A070AD53B69002B07D006AD45
S1132B9000236B6120236B763023AB763BE0301C43
S1132BA0391C00F0CBFA0028F1D001204042C2E0E9
S1132BB0059A111D12680591002A76DB09920134E9
S1132BC023782E2B00D181E021785F48032200F086
S1132BD0FBFC002807D05C492A68431A402098402F
S1132BE01043286001342178631C5848062203935B
S1132BF0297600F0E9FC002800D18AE0544B002B30
S1132C007ED1059B072207339343083305936A69F2
S1132C10049953186B61039C2378002B04D1039906
S1132C20611A029110D003E0252BF8D00134F3E7A8
S1132C30301C391C039A029BFFF775FF013075D0D5
S1132C406A69029953186B612378002B6ED00122B4
S1132C5052426A606A4600235B3201342B60EB60A7
S1132C60AB601370AB6521783A48052200F0ACFCE8
S1132C70002808D0374A0134831A012098402B6871
S1132C8018432860EFE72B68D90603D56A4620214C
S1132C905B3211701A0703D56A462B215B3211701F
S1132CA022782A2A84D0099B05E05242EA60022253
S1132CB013432B6083E72278303A092A04D80A2187
S1132CC04B4301349B18F6E7099379E763782A2B81
S1132CD009D1059B02341A1D1B680592002B0DDADD
S1132CE001235B420AE0013400232278303A092AA6
S1132CF004D80A214B4301349B18F6E7079363E792
S1132D0005AB0093301C291C3A1C134B00E000BF98
S1132D1007E005AB0093301C291C3A1C0E4B00F055
S1132D209FF804900499013100D070E7BB895A06DA
S1132D3000D53AE70B981FB0F0BDC046FC3E00003A
S1132D401C3F00003C3F0000CE3E0000D23E00008D
S1132D5000000000C83E0000272B000038B5131CFB
S1132D60044A051C0C1C1068291C221CFFF7EEFEEB
S1132D7038BDC04664000020F7B5151C01930A69EC
S1132D808B68061C0C1C934200DA131C221C2B605B
S1132D9043321278002A01D001332B602068800668
S1132DA002D52B6802332B60216806270F401FD001
S1132DB0231C43331B785A1E9341226892061FD565
S1132DC0E11840313020C870211C5A1C4531097863
S1132DD0A21840320233D17012E0221C301C019937
S1132DE019320123089FB847013011D0009F0137E1
S1132DF00097E0682968009F431A9F42EDDBD7E7FC
S1132E00221C301C01994332089FB847013002D17B
S1132E100120404223E0206806212B68E26801403B
S1132E200025042903D1D51AEB43DB171D40A26802
S1132E3023699A4201DDD31AED1800270097009FF9
S1132E40AF420BDA221C301C01991A320123089F6D
S1132E50B8470130DCD0009F0137EFE70020FEBD0A
S1132E60F0B50D1C8BB0433506920590079304957D
S1132E700B7E0C1C109A6E2B00D1A7E011D8632B8B
S1132E8022D009D8002B00D1B0E0582B00D0C0E0EC
S1132E9045310B707B4D4EE0642B1CD0692B1AD04E
S1132EA0B7E0732B00D1A5E009D86F2B29D0702B84
S1132EB000D0AEE00E68202333430B6036E0752B60
S1132EC01FD0782B32D0A4E013680D1C191D423595
S1132ED011601B689FE0216813680E0603D5191D55
S1132EE011601E6805E04806F9D5191D116000211E
S1132EF05E5E644B002E3BDA049D2D2276422A70DE
S1132F0036E0216813680E0603D5191D11601E688A
S1132F1004E04806F9D5191D1E881160594B227E1C
S1132F20039308276F2A1ED00A271CE0231C78214C
S1132F304533554D197011682368081D03951060B9
S1132F401E0601D50E6802E05806FBD50E88D90787
S1132F5002D52022134323601027002E03D12268B8
S1132F6020239A432260231C002243331A7001E079
S1132F7003930A276368A360002B03DB25680422FC
S1132F8095432560002E02D1049D002B0ED0049D94
S1132F90301C391CFFF706FC0398013D435C301CD0
S1132FA02B70391CFFF7BAFB061EF1D1082F09D18B
S1132FB02168C90706D5626823699A4202DC013D8B
S1132FC030232B70049E731B23612AE00868136866
S1132FD04969050604D5181D10601B68196005E0D1
S1132FE04606F8D5181D10601B681980002323615C
S1132FF0049D16E01368191D11601D68281C00F05B
S1133000E9FB63682061984200D92361206960600C
S113301004E0251C42352B7001232361049E002308
S11330203370079E05980096211C09AA069BFFF79A
S1133030A3FE013002D10120404221E02A1C059860
S113304006992369079DA8470130F4D02668B6077E
S113305005D4099BE068984212DA181C10E0002598
S1133060E0680999431A9D42F3DA221C05980699EF
S113307019320123079EB0470130DCD00135EFE758
S11330800BB0F0BDD93E0000EA3E000070B5051C4F
S11330900E1C141C002804D08269002A01D100F0FF
S11330A0C9F9234B9C4201D16C6808E0214B9C4236
S11330B001D1AC6803E0204B9C4200D1EC68A369C9
S11330C0A360A3891A070AD52369002B07D02268B5
S11330D02369F6B2D01A626990420FDB08E0281C1B
S11330E0211C00F02BF80028F1D0012040421DE003
S11330F0281C211C00F01EF90028F6D1A368013019
S1133100013BA36023685A1C22601E7063699842C5
S113311005D0A389301CDA0708D50A2E06D1281C4D
S1133120211C00F007F90028DFD1301C70BDC04617
S1133130FC3E00001C3F00003C3F0000344B70B5D7
S11331401D68061C0C1C002D05D0A969002902D19C
S1133150281C00F06FF92F4B9C4201D16C6808E0E9
S11331602D4B9C4201D1AC6803E02C4B9C4200D116
S1133170EC68A28993B2190721D4D90605D409238E
S1133180336040231A43A2813FE05A0713D5616B91
S1133190002908D0231C4433994202D0301C00F08B
S11331A01FFA00236363A38924229343A38100238A
S11331B0636023692360A38908221343A3812169DF
S11331C000290BD1A389A02292001A4080239B00DE
S11331D09A4203D0301C211C00F09CF9A3890122DF
S11331E01A4005D061690022A2604A42A26103E04C
S11331F0990700D46269A26022690020824206D144
S1133200190604D540221343A3810120404270BD16
S113321064000020FC3E00001C3F00003C3F000016
S1133220F7B58B89051C0C1C19075ED46268002A4B
S113323002DC276C002F1ADDE76A002F17D000226A
S11332402E682A60802252011A4001D0626D15E076
S1133250281C216A0123B847021C411C0ED12B688B
S1133260002B0BD01D2B01D0162B02D12E60002079
S11332705EE0A38940210B43A38159E0A3895F0742
S113328006D56168636B521A002B01D0276CD21BE0
S1133290281C216A0023E76AB847A289411C06D189
S11332A02B68002B03D01D2B01D0162B19D1002322
S11332B0636023692360D70405D5411C02D12A68C1
S11332C0002A00D16065616B2E600029CFD0231CD9
S11332D04433994202D0281C00F082F90020606334
S11332E026E040231A43A28122E02669002EBED0A4
S11332F027680022BF1B01972660990700D16269E5
S1133300A260019F002FB2DD281C216A321C019BA0
S1133310A76AB847002806DCA3894022134301208A
S1133320A381404204E0019F36183F1A0197E8E761
S1133330FEBD00000A6938B5051C0C1C002A01D129
S113334000201CE0002804D08369002B01D100F088
S113335071F80B4B9C4201D16C6808E0094B9C420C
S113336001D1AC6803E0084B9C4200D1EC680C220C
S1133370A35E002BE4D0281C211CFFF751FF38BDAD
S1133380FC3E00001C3F00003C3F0000F8B5041C5C
S1133390071C4834002C12D0A5686668013E0CD482
S11333A0AB89012B07D90E22AB5E013303D0381C45
S11333B0291CFFF7BFFF6835F0E72468EAE7F8BD8A
S11333C0002310B5041C036043608360818143665D
S11333D0C281036143618361191C08225C30FFF7D9
S11333E04AFA054B24626362044BA362044BE36212
S11333F0044B236310BDC0463D3700006537000011
S11334009D370000C937000070B54B1E68255D4329
S11334100E1C291C743100F02BF9041E08D0002165
S1133420016046602A1C0C30A0606832FFF723FA62
S1133430201C70BD836913B5041C002B27D1836441
S1133440C3640365124B134A1B688262984201D11C
S113345001238361201C00F01FF86060201C00F031
S11334601BF8A060201C00F017F80421E060002283
S11334706068FFF7A5FFA06809210122FFF7A0FFFC
S1133480E06812210222FFF79BFF0123A36113BD11
S1133490C43E00008D330000F8B51D4B071C1E68A8
S11334A0B269002A02D1301CFFF7C4FF4836B46861
S11334B07368013B05D40C22A55E002D10D068343E
S11334C0F7E73368002B06D1381C0421FFF79CFF73
S11334D03060002801D03668E9E70C233B6016E031
S11334E001235B42E381201C0123A38165662560DF
S11334F0A560656025616561A5615C30291C0822B1
S1133500FFF7B9F96563A563A564E564201CF8BDFC
S1133510C43E0000F0B58B8991B0051C0C1C9A07C1
S113352025D40E23C95E002906DAA78980231F400B
S11335300FD0002740260EE001AA00F079F90028F8
S1133540F3DB029BF0273F02184A1F40BF187B425F
S11335505F418026F600281C311C00F089F8002801
S11335600CD1A3899A051FD402221343A381231CDF
S11335704733236023610123636115E00C4B8022F0
S1133580AB62A38920601343A38120616661002F8D
S11335900AD00E23E15E281C00F05CF9002803D059
S11335A0A38901221343A38111B0F0BD00E0FFFF02
S11335B08D33000008B5034B011C186800F058F85F
S11335C008BDC04664000020C9B28218904204D0ED
S11335D003788B4202D00130F8E7002070470000E6
S11335E030B5002940D004390B68002B00DAC91823
S11335F01E4A1368141C002B02D14B60116033E087
S113360099420FD208680A189A4205D11368526881
S1133610C01808604A6000E04B60216024E08A42E0
S113362003D8131C5A68002AF9D11D685C198C420E
S11336300BD10968691858181960904214D114689C
S11336405268091919605A600EE08C4202D90C23A1
S1133650036009E008680C18944203D114685268A6
S1133660001908604A60596030BDC0462801002036
S113367070B50323CD1C9D430835061C0C2D01D2C7
S11336800C2501E0002D3FDB8D423DD3204B1C680F
S11336901A1C211C002913D00868431B0DD40B2BC2
S11336A002D90B60CC181EE08C4202D1636813600F
S11336B01AE0486860600C1C16E00C1C4968E9E7D5
S11336C0144C2068002803D1301C00F025F8206039
S11336D0301C291C00F020F8431C15D0C41C032303
S11336E09C4384420AD12560201C0B300722231DF1
S11336F09043C31A0BD05A42E25008E0211A301CFE
S113370000F00AF80130EED10C233360002070BDC4
S1133710280100202401002038B5074C0023051C93
S1133720081C2360FEF7F0FB431C03D12368002B25
S113373000D02B6038BDC0467002002038B50C1C88
S11337400E25495F00F0ACF8002803DB626D131806
S1133750636503E0A289024B1340A38138BDC046D0
S1133760FFEFFFFFF8B51E1C8B89051C0C1C171CF2
S1133770DA0505D50E23C95E0022022300F07CF889
S1133780A289054B281C1340A3810E22A15E331C81
S11337903A1C00F027F8F8BDFFEFFFFF38B50C1C0A
S11337A00E25495F00F068F8A389421C03D1054A3D
S11337B01340A38104E0802252011343A381606576
S11337C038BDC046FFEFFFFF08B50E23C95E00F009
S11337D01DF808BD0023C25C0133002AFBD1581E2A
S11337E07047000038B5084C051C00202060081CF8
S11337F0111C1A1CFEF76EFB431C03D12368002B1B
S113380000D02B6038BDC0467002002038B5074C8C
S11338100023051C081C2360FEF786FB431C03D110
S11338202368002B00D02B6038BDC04670020020F6
S113383038B5074C0023051C081C111C2360FEF737
S113384076FB431C03D12368002B00D02B6038BDCA
S11338507002002038B5074C0023051C081C2360A7
S1133860FEF76AFB431C03D12368002B00D02B60B6
S113387038BDC0467002002038B5084C051C002035
S11338802060081C111C1A1CFEF758FB431C03D1B2
S11338902368002B00D02B6038BDC0467002002086
S11338A038B5084C051C00202060081C111C1A1C8B
S11338B0FEF7F4FA431C03D12368002B00D02B60DD
S11338C038BDC046700200202E2E2F7372632F4124
S11338D053462F636F6D6D6F6E2F7574696C732F04
S11338E0696E746572727570742F696E7465727224
S11338F07570745F73616D5F6E7669632E630041EA
S11339007373657274696F6E206661696C65643A7D
S1133910202573006370755F6972715F63726974E7
S11339206963616C5F73656374696F6E5F636F7500
S11339306E746572203E2030004173736572746941
S11339406F6E2027257327206661696C656420618A
S1133950742025733A25640D0A0054657374202776
S1133960257327206661696C656420617420257362
S11339703A25753A0D0A090052756E6E696E672014
S11339807465737420737569746520272573272EF5
S11339902E2E0D0A0052756E6E696E672074657363
S11339A0743A2025730D0A0053657474696E672098
S11339B0757020666978747572650D00546573744A
S11339C02027257327206661696C656420647572FD
S11339D0696E6720272573273A2025640D0A007332
S11339E065747570007465737400436C65616E6909
S11339F06E6720757020666978747572650D006352
S1133A006C65616E757000546573742073756974A8
S1133A1065202725732720636F6D706C6574653A84
S1133A202025752074657374732C202575206661B8
S1133A30696C757265732C202575206572726F72BE
S1133A40730D0A0D0A00636F6E666967002E2E2FD0
S1133A507372632F4153462F73616D302F64726903
S1133A60766572732F73797374656D2F70696E6DDB
S1133A7075782F70696E6D75782E68002E2E2F73F1
S1133A8072632F4153462F73616D302F64726976D0
S1133A906572732F706F72742F706F72742E63005F
S1133AA0706F72740000000000080042000C0042B5
S1133AB0001000420014004200180042001C0042A2
S1133AC02E2E2F7372632F4153462F73616D302F47
S1133AD0647269766572732F736572636F6D2F7389
S1133AE06572636F6D2E630066616C736500090A0D
S1133AF00B0C0D0E2E2E2F7372632F4153462F7312
S1133B00616D302F647269766572732F73657263A9
S1133B106F6D2F736572636F6D5F696E746572721A
S1133B207570742E63002E2E2F7372632F415346CB
S1133B302F73616D302F647269766572732F7365AC
S1133B4072636F6D2F75736172742F757361727404
S1133B502E68006D6F64756C65006D6F64756C65BF
S1133B602D3E6877002E2E2F7372632F4153462FFC
S1133B7073616D302F647269766572732F73657229
S1133B80636F6D2F75736172742F75736172742E08
S1133B9063002E2E2F7372632F4153462F73616D72
S1133BA0302F647269766572732F736572636F6DFB
S1133BB02F75736172742F75736172745F696E749B
S1133BC06572727570742E630063616C6C626163FC
S1133BD06B5F66756E630074785F64617461007214
S1133BE0785F64617461002E2E2F7372632F4153CA
S1133BF0462F73616D302F647269766572732F730B
S1133C00797374656D2F636C6F636B2F636C6F6373
S1133C106B5F73616D6432315F7232312F636C6F2D
S1133C20636B5F666561747572652E68002E2E2F56
S1133C307372632F4153462F73616D302F64726921
S1133C40766572732F73797374656D2F636C6F630C
S1133C506B2F636C6F636B5F73616D6432315F7282
S1133C6032312F636C6F636B2E63002E2E2F7372B1
S1133C70632F4153462F73616D302F6472697665EB
S1133C8072732F73797374656D2F636C6F636B2F0D
S1133C90636C6F636B5F73616D6432315F72323179
S1133CA02F67636C6B2E63002147434C4B2D3E43BF
S1133CB04C4B4354524C2E6269742E5752544C4F01
S1133CC0434B002E2E2F7372632F4153462F736183
S1133CD06D302F647269766572732F7379737465AE
S1133CE06D2F70696E6D75782F70696E6D75782E95
S1133CF063000000383E0000343D0000903E0000A8
S1133D00243D000042756666657220696E746572B2
S1133D1072757074207265616420616E64207772BC
S1133D206974650000000000C12400000000000068
S1133D30043D000000000000E92200000000000033
S1133D40483E00002E2E2F7372632F756E69745FC8
S1133D50746573742E63004661696C6564207265D2
S1133D6063656976696E672073656E742062797421
S1133D70652E2054583D25642C2052583D2564005E
S1133D802E2E2F7372632F4153462F73616D302F84
S1133D90647269766572732F736572636F6D2F75C4
S1133DA0736172742F75736172745F696E74657276
S1133DB0727570742E680054696D656F757420692E
S1133DC06E20726563657074696F6E004661696C1C
S1133DD0656420726563656976696E6720737472C1
S1133DE0696E672E2054583D272573272C2052587E
S1133DF03D272573270048656C6C6F20776F726CC4
S1133E0064210054696D656F757420696E20736553
S1133E106E642F726563656976650053414D205564
S1133E2053415254206472697665722074657374C8
S1133E30207375697465000000000000651F0000B0
S1133E4000000000A03E00005472616E736665724B
S1133E502073696E676C6520392D6269742063680C
S1133E60617261637465720042756666657220777B
S1133E707269746520626C6F636B696E672F72651B
S1133E80616420696E74657272757074000000005C
S1133E9000000000C123000000000000683E000094
S1133EA05472616E736665722073696E676C652007
S1133EB0382D62697420636861726163746572008D
S1133EC04300000004000020232D302B2000686CE8
S1133ED04C00656667454647003031323334353629
S1133EE03738394142434445460030313233343562
S1133EF0363738396162636465660000000000008B
S1133F0000000000000000000000000000000000AD
S1133F10000000000000000000000000000000009D
S1133F20000000000000000000000000000000008D
S1133F30000000000000000000000000000000007D
S1133F40000000000000000000000000000000006D
S1133F50000000000000000000000000F8B5C046AA
S1133F60F8BC08BC9E467047D9000000F8B5C046AE
S10F3F70F8BC08BC9E467047B10000007D
S1133F7C0100000000000000FC3E00001C3F00009B
S1133F8C3C3F0000000000000000000000000000A6
S1133F9C00000000C03E0000000000000000000013
S1133FAC0000000000000000000000000000000001
S1133FBC00000000000000000000000000000000F1
S1133FCC00000000000000000000000000000000E1
S10B3FDC0000000004000020B5
S9031DE9F6
