S01300004C45445F544F47474C45312E73726563EA
S113000088200020C5070000C1070000C1070000C8
S113001000000000000000000000000000000000DC
S1130020000000000000000000000000C107000004
S11300300000000000000000C1070000C10700002C
S1130040C1070000C1070000C1070000C10700008C
S113005009020000C1070000C1070000C107000039
S1130060C1070000C1070000C1070000C10700006C
S1130070C1070000C1070000C1070000C10700005C
S1130080C1070000C1070000C1070000C10700004C
S1130090C1070000C1070000C1070000C10700003C
S11300A0C1070000C1070000C1070000C10700002C
S11300B010B5064C2378002B07D1054B002B02D03A
S11300C0044800E000BF0123237010BD0400002099
S11300D000000000BC09000008B5084B002B03D049
S11300E00748084900E000BF07480368002B03D015
S11300F0064B002B00D0984708BDC0460000000006
S1130100BC09000008000020BC0900000000000039
S11301100C4B1B68002B10D1EFF31083002B09D17B
S113012072B6BFF35F8F0022074B1A700122074B90
S11301301A7002E00022054B1A70024B1A68013251
S11301401A607047200000200000002024000020D6
S1130150084B1A68013A1A601B68002B09D1064B38
S11301601B78002B05D00122044B1A70BFF35F8F5C
S113017062B6704720000020240000200000002008
S1130180F0B583B001AC012565700027A770257018
S11301903E20211C064EB0478022D205054B9A61B1
S11301A0277065700F20211CB04703B0F0BDC04616
S11301B089030000804400411723002A0FD18B00DB
S11301C0084A9A58002A04D1191C064BC850002327
S11301D005E01D23121A501E824152421340181C7E
S11301E07047C046440000201723002907D100238C
S11301F01F2800D8034B01228240DA600023181C18
S11302007047C0460018004070B50022164B1A70A3
S113021000231F26154D144C1F2B10D919E0144927
S113022000E000210A619B005B59002B00D0984735
S113023023780133DBB223700F2B14D8ECE7321C84
S11302401A40012191400A1C094909691142E6D169
S1130250EEE7321C1A40012191400A1C0021096971
S11302601142DED1E4E770BD4000002044000020CC
S113027000180040054B197802220A431A701A1C10
S113028053785BB2002BFBDB7047C046001800407C
S113029000B583B0124B996940220A439A6101A9BF
S11302A000230B7005200F4B984705200E4B9847F1
S11302B00E4B197801220A431A701A1C53785BB248
S11302C0002BFBDB0A4B191C4031002204C38B4278
S11302D0FCD11022074B1A60074B984703B000BDAE
S11302E000040040C5060000390600000018004064
S11302F04400002000E100E07502000000230360D8
S1130300436001220272427283720223C3727047F5
S1130310F0B583B0051C0C1C01A900234B70CB70F5
S113032063680B70237A8B702078154B98470023F1
S11303301F2D00D8134B072129408900E07AA27AA7
S1130340002A01D008221043EA0892009A189669FC
S113035088400F278F40BE43311C01439161627A6C
S1130360002A06D05A690121A9400D1C15435D617C
S113037004E05A690121A9408A435A6103B0F0BDDF
S11303806D0700000018004000B583B001AB802267
S11303901A700A785A704A789A708A78DA70191C36
S11303A0014B984703B000BD6D07000070B50C4BBE
S11303B01C6A01788578407801221040800140262B
S11303C0B44304432A40D00180229443221C0243B4
S11303D0032001400902034802400A431A6270BD27
S11303E000080040FFFCFFFF082843D88000224B90
S11303F01B589F4600203EE0204B196A02220A4304
S11304001A62002037E01D4B996902220A439A615F
S1130410002030E0194B198A02220A431A82002074
S113042029E0164B998A02220A439A82002022E08C
S1130430134B196802220A431A601A68114B1A40B6
S11304400E4B9A84191C1022CB681A42FCD00C4A19
S113045091680A4BD96251689962126892B29A847F
S1130460002008E0054A4423D05C02210143D15412
S1130470002000E0172070477809000000080040C1
S1130480280000207FFF000030B585B0C222D200D2
S1130490194B9A60194B5A681E218A435A600123EA
S11304A06A4613700024164DE0B26946A847013429
S11304B0252CF9D103A8002444700125857004700B
S11304C0104B98470620104B9847104B9847104BF9
S11304D01C725C729C7201956B465C7006236A46C2
S11304E0137014725472002069460A4B9847002016
S11304F0094B984705B030BD00080040004000415A
S1130500C5060000AD030000E90300001D0500005E
S11305100004004041050000F5050000064B996900
S113052008220A439A610122044B1A70191C0B78A1
S11305301342FCD17047C04600040040000C004048
S1130540F8B5061C071C0D782D0205434B78002BCB
S113055002D08023DB021D434B7A002B02D0802380
S11305601B031D434C68012C17D9631E1C420FD179
S1130570022C06D90223002201325B009C42FBD8E4
S113058000E000221702374380235B031D4304E08D
S11305902702374380239B021D430B7A002B02D092
S11305A080239B031D430F4A53785BB2002BFBDB74
S11305B00D4B98470D4B1E700A4A53785BB2002BC3
S11305C0FBDB084B9F601A1C53785BB2002BFBDBF0
S11305D0044B5968802252020A4015435D60044B63
S11305E09847F8BD000C004011010000080C0040C1
S11305F05101000010B5041C0B4A53785BB2002B68
S1130600FBDB0A4B98470A4B1C70074A53785BB2D2
S1130610002BFBDB044B5968802252020A435A60C8
S1130620044B984710BDC046000C00401101000067
S1130630040C00405101000010B5041C064B9847FF
S1130640064B1C70064B59888022D2010A435A80FB
S1130650044B984710BDC04611010000020C004035
S1130660000C00405101000010B5041C0F4B9847CA
S11306700F4B1C700F4B58880005000F59880E4A09
S11306800A405A8059880D4A0A405A80191C80220F
S1130690D2014B881342FCD1064B01025888064A0A
S11306A002400A435A80064B984710BD11010000CE
S11306B0020C0040000C0040FFF0FFFFFFBFFFFFF3
S11306C05101000010B50C7824020443024B9847F2
S11306D0A4B2024B5C8010BD69060000000C00400F
S11306E030B5D378002B1ED11378802B04D01B0691
S11306F080246402234300E0002354780225AC43A1
S11307000AD19478002C03D18024A402234302E06C
S1130710C024E402234341605478013C012C04D8F2
S1130720114C234001E0416000230D042D0CA02452
S1130730E4052C431C4384620D0CD02424062C4372
S11307401C438462D478002C0CD15C0305D59378C7
S1130750012B01D1816100E041615378013B012B00
S113076000D8816030BDC046FFFFFBFF08B5031C05
S11307700A1CC1090020002903D15809C0010449F9
S113078040181F210B4001219940024B984708BD96
S113079000440041E10600007047C04608B5044B20
S11307A09847044B9847044B9847044B984708BD17
S11307B089040000810100009907000091020000F3
S11307C0FEE7C04670B5022190235B00284AD15051
S11307D0284BD8780321884302221043D870DD784F
S11307E00C24A54308200543DD70234B9E7B302554
S11307F0AE43202535439D739D7BA54328439873C1
S1130800987B884302439A731C4B1D4A9A4203D037
S11308101C4B1A4A9A4204D31B4B1C4A9A4210D3CB
S11308201BE01B4B17480330C01A800801308000BE
S113083000231249124AD458CC5004338342FAD1CB
S1130840EAE7124B1A1D10490331891A89088900F5
S11308505218002102C39342FCD10E4B7F210E4A51
S11308608A439A600D4B98470D4B9847FEE7C04664
S11308700070004100500041004800410000002089
S1130880BC090000040000208400002004000020B3
S11308900400002000ED00E0000000002D0900002D
S11308A0C9080000064B1B6A1A0404D58022D2052D
S11308B0044B9A6103E08022D205024B5A617047CF
S11308C0004400418044004130B585B0104B984746
S11308D001AC201C0F4B98470F2301930023636046
S11308E00323E3720125A5720F20211C0A4B9847AC
S11308F00A480F2100220A4B98470F200021094B78
S11309009847094B1D70BFF35F8F62B6FEE7C04680
S11309109D070000FD02000011030000A50800006F
S1130920B9010000E90100000000002070B50E4B81
S11309300E4D0024ED1AAD101E1CAC4204D0A300D1
S1130940F35898470134F8E700F028F8084B094DAC
S11309500024ED1AAD101E1CAC4204D0A300F358C1
S113096098470134F8E770BDA8090000A809000001
S1130970A8090000AC09000014040000740400007D
S113098074040000F40300000604000022040000C4
S1130990F80300003004000064040000F8B5C04609
S11309A0F8BC08BC9E467047D9000000F8B5C046A4
S10F09B0F8BC08BC9E467047B100000073
S10709BC0100000032
S90307C530
