S01A000055534152545F515549434B5F5354415254312E7372656381
S1130000502000202D0F0000290F0000290F0000B0
S113001000000000000000000000000000000000DC
S1130020000000000000000000000000290F000094
S11300300000000000000000290F0000290F00004C
S1130040290F0000290F0000290F0000290F0000CC
S1130050290F0000290F0000290F0000290F0000BC
S1130060290F0000290F0000290F0000290F0000AC
S1130070290F0000290F0000290F0000290F00009C
S1130080290F0000290F0000290F0000290F00008C
S1130090290F0000290F0000290F0000290F00007C
S11300A0290F0000290F0000290F0000290F00006C
S11300B010B5064C2378002B07D1054B002B02D03A
S11300C0044800E000BF0123237010BD0400002099
S11300D0000000008C12000008B5084B002B03D070
S11300E00748084900E000BF07480368002B03D015
S11300F0064B002B00D0984708BDC0460000000006
S11301008C120000080000208C1200000000000087
S11301100C4B1B68002B10D1EFF31083002B09D17B
S113012072B6BFF35F8F0022074B1A700122074B90
S11301301A7002E00022054B1A70024B1A68013251
S11301401A607047200000200000002024000020D6
S1130150084B1A68013A1A601B68002B09D1064B38
S11301601B78002B05D00122044B1A70BFF35F8F5C
S113017062B6704720000020240000200000002008
S1130180F0B583B001AC012565700027A770257018
S11301903E20211C064EB0478022D205054B9A61B1
S11301A0277065700F20211CB04703B0F0BDC04616
S11301B0B90100008044004100B583B001AB802246
S11301C01A700A785A704A789A708A78DA70191C08
S11301D0014B984703B000BDD50E000010B5031CB9
S11301E04908402099420CD30024C91A601C80B2EB
S11301F08B4201D8041CF8E74020FF2C01D814805E
S1130200002010BD00000000F0B55F4656464D4684
S11302104446F0B487B0061C0D1C049210AA107852
S1130220321C424340248A4200D9B3E0002B4BD114
S11302300021321C5E4CA04783462E1C0027002060
S11302400021002200233F24A4460125A846029051
S113025003916146203903D440468840814605E035
S1130260202165464C1B4046E04081464146644699
S1130270A1408A46101C191C80185941021C0B1CF1
S11302805D464C46254202D0424602430B1C9F4227
S11302900CD801D1964209D8921BBB415046029D0D
S11302A028434946039C2143029003916546013D3E
S11302B0AC46CED2029803993C4B3B4A121A8B416E
S11302C0120C1B041A4362E00022012B5FD14F0F72
S11302D0B946CD00AB460021321C0023344CA04764
S11302E0061C0F1C00230125029603979A465046CC
S11302F0C0B2059000218846002200233F24271C19
S1130300203F03D42E1CBE40019604E02020071B8E
S1130310291CF94001912E1CA6400096101C191CA2
S113032080185941021C0B1C5F463740BC46019E95
S11303304F463E4067463E4302D02A1C02430B1CF4
S1130340039898420BD802D10299914207D8029E91
S1130350039F921BBB41474600980743B846013CA4
S1130360CDD2414652468B1ADB08124CA34208D91F
S1130370059A0132D2B205920126B2445746082F9B
S1130380B5D140240598082804D042031A43049C9C
S113039022800024201C07B03CBC90469946A2460B
S11303A0AB46F0BDC046C04600000000010000009E
S11303B06D110000FF1F000010B582B0041C0F4B2C
S11303C01B78002B01D000290DD001A90C7013203B
S11303D00B4B984713200B4B9847084B5C7001223A
S11303E01A70002007E0054B5A781D20141B621E6A
S11303F094416442204002B010BDC0462800002051
S1130400F90D00006D0D0000444B984233D006D81E
S1130410434B98420DD0434B98421BD06FE0424B64
S113042098424AD0414B984258D0414B984266D1A9
S113043032E0012965D0002904D0022906D003291D
S113044006D001E03B4867E0002065E03A4863E0FD
S11304503A4861E0012956D0002904D0022906D087
S1130460032906D001E0032056E0002054E034487C
S113047052E0344850E0012947D0002904D0022931
S113048006D0032906D001E02F4845E0002043E0D0
S11304902E4841E02E483FE0012938D0002904D0FD
S11304A0022906D0032906D001E02A4834E00020BE
S11304B032E0294830E029482EE0012929D00029DA
S11304C004D0022906D0032906D001E0244823E001
S11304D0002021E023481FE023481DE001291AD011
S11304E0002904D0022906D0032906D001E01F48C0
S11304F012E0002010E01E480EE01E480CE0002030
S11305000AE01D4808E01D4806E01D4804E01D48B7
S113051002E01D4800E01D487047C046001000423C
S113052000080042000C004200180042001C004277
S11305300014004203000400030006000300070047
S113054003001E0003001F000300080003000A004C
S113055003000B000300100003001200030013004B
S113056003000C0003000E0003000F00030016003C
S11305700300180003001900030005000300010034
S1130580030009000300110003000D00030017001D
S113059070B586B00C4A6B4670CA70C332CA32C397
S11305A0009E864206D001239A0069465258824230
S11305B003D100E00023D8B203E00133062BF3D1CA
S11305C0002006B070BDC046FC110000F0B55F46C7
S11305D056464D464446F0B491B0051C0C1C161CFE
S11305E02960081C9E4B9847021C23680520D907E4
S11305F000D52DE123681C209F0700D528E1994BE5
S1130600186A911C01278F40391C014319620FA9F4
S11306102D27F35D0B701432D2B29046101C924B0E
S113062098474046914B9847F05D0021904B98477E
S1130630F37A6B712423F35CAB712523F35CEB71C8
S1130640F37E2B72337F6B7229688846081C844BB7
S11306509847143000226B46DA84328A029280234F
S1130660DB019A4221D08023DB019A4204D8802303
S11306709B019A4211D008E0C023DB01029F9F42F4
S11306800FD080231B029F4203D010270697002718
S11306900EE00327069700270AE010270697012794
S11306A006E008270697012702E008270697002797
S11306B031680391F268914673690493317E8A46E6
S11306C02623F35C9B467368002B13D080225205CB
S11306D093422ED12723F35C002B2ED1376AC0B26C
S11306E0644B9847011C381C6A462632624B984773
S11306F0031C1FE02723F35C002B0AD0069A009208
S1130700306AB16A6A4626323B1C5C4FB847031C08
S113071010E0316A0791C0B2564B9847011C069A03
S1130720009207986A4626323B1C544FB847031C74
S113073000E00023181E00D08AE0737E002B02D054
S1130740B37E41468B732A68029FD369002BFCD188
S113075002976B4626331B88424693814B46039F80
S11307603B43049F3B4371680B43029F1F43524624
S113077013021F4359464B071F432723F35C002BE7
S113078001D104231F43717E8902337F5B02194325
S1130790F27AB37A13431943737F1B021943242358
S11307A0F35C5B0419432523F35C1B04194333896D
S11307B0FF2B0BD0F27E002A03D0A022D2041743D1
S11307C002E0802252041743194305E0F37E002B14
S11307D002D08023DB041F432C23F35C002B03D1C2
S11307E0274B9B789A0701D580231F432A68D36936
S11307F0002BFCD1434659602A68D369002BFCD1F5
S113080041460F600EAB80221A7000225A70DA70D3
S11308109A70326B0A92736B0B93B76B0C97F66BEF
S11308200D9600250EAE174FE9B2AB000AAA9858F0
S1130830002802D1201C144A9047431C04D0307075
S1130840000CC0B2311CB8470135042DECD1002096
S113085011B03CBC90469946A246AB46F0BDC0469A
S11308609105000000040040F90D00006D0D00002A
S1130870B9030000150E0000DD01000009020000AC
S113088000200041D50E00000904000010B50368E3
S1130890C2791C20002A0CD01A7E0520D40708D562
S11308A0DA69002AFCD1198502211A7E0A42FCD099
S11308B0002010BD10B5036882791C20002A2FD0B7
S11308C01A7E052054072BD5DA69002AFCD15A8BED
S11308D0D2B2900621D0940703D502225A831A205B
S11308E01EE0500703D504225A831E2018E0D407C3
S11308F003D501225A83132012E0D00605D5598B63
S113090010220A435A8342200AE0940605D5598BE3
S113091020220A435A83412002E01B8D0B800020D1
S113092010BDC046F0B557464E464546E0B4061CD9
S113093088461720002A4AD0F3791C20002B46D081
S11309403468E369002BFCD1924600270125224A32
S113095091461FE0227E2A4204D1012B29D0013B7B
S1130960002BF7D17B1C9BB24246D15D7279012AE0
S113097001D01F1C05E0BA1C97B24246D35C1B028F
S11309801943301C154B98475346013B9BB29A467A
S1130990002B16D0237E2B42E4D14B46DAE7227E8D
S11309A00A4208D1012B08D0013B002BF7D10020CB
S11309B00DE012200BE0002009E0122007E00020E7
S11309C005E0237E9A07FAD4034B0221E7E71CBC17
S11309D090469946A246F0BDFFFF00008D08000036
S11309E008B5082834D880001B4B1B589F4680202C
S11309F0000230E0194B18692DE0194B186A800584
S1130A00800F184BC340181C25E0144B586922E092
S1130A10124B1B68022018401DD011491022CB68CC
S1130A201A42FCD00D4B1B685A0713D500200E4BFD
S1130A3098470A4B9B681B041B0C58430BE050233C
S1130A40074AD35C00205A0705D5044BD86802E056
S1130A50002000E0054808BD141200002C0000200E
S1130A600008004000127A00150E0000006CDC0241
S1130A7070B50C4B1C6A01788578407801221040CF
S1130A8080014026B44304432A40D0018022944389
S1130A90221C0243032001400902034802400A4386
S1130AA01A6270BD00080040FFFCFFFF082843D80D
S1130AB08000224B1B589F4600203EE0204B196AC1
S1130AC002220A431A62002037E01D4B9969022270
S1130AD00A439A61002030E0194B198A02220A4322
S1130AE01A82002029E0164B998A02220A439A822C
S1130AF0002022E0134B196802220A431A601A6884
S1130B00114B1A400E4B9A84191C1022CB681A42BE
S1130B10FCD00C4A91680A4BD962516899621268F8
S1130B2092B29A84002008E0054A4423D05C022152
S1130B300143D154002000E0172070473812000010
S1130B40000800402C0000207FFF000030B585B075
S1130B50C222D200134B9A60134B5A681E218A4357
S1130B605A6003A8002444700125857004700F4B5B
S1130B70984706200E4B98470E4B98470E4B1C7215
S1130B805C729C7201956A46547006231370147249
S1130B90547200206946094B98470020084B984737
S1130BA005B030BD0008004000400041710A00005B
S1130BB0AD0A0000C50B000000040040E90B000072
S1130BC09D0C0000064B996908220A439A61012290
S1130BD0044B1A70191C0B781342FCD17047C046A1
S1130BE000040040000C0040F8B5061C071C0D78FA
S1130BF02D0205434B78002B02D08023DB021D43DA
S1130C004B7A002B02D080231B031D434C68012C1C
S1130C1017D9631E1C420FD1022C06D902230022CD
S1130C2001325B009C42FBD800E0002217023743EC
S1130C3080235B031D4304E02702374380239B0288
S1130C401D430B7A002B02D080239B031D430F4AC4
S1130C5053785BB2002BFBDB0D4B98470D4B1E709A
S1130C600A4A53785BB2002BFBDB084B9F601A1CCB
S1130C7053785BB2002BFBDB044B59688022520291
S1130C800A4015435D60044B9847F8BD000C0040D2
S1130C9011010000080C00405101000010B5041CB3
S1130CA00B4A53785BB2002BFBDB0A4B98470A4B89
S1130CB01C70074A53785BB2002BFBDB044B59686A
S1130CC0802252020A435A60044B984710BDC04622
S1130CD0000C004011010000040C00405101000010
S1130CE070B5041C1A4A53785BB2002BFBDB194B1A
S1130CF09847194B1C70164A53785BB2002BFBDBE8
S1130D00134E7068C004C00E144B9847051C124B58
S1130D101C707668F602F60F114B1C700C4A53785F
S1130D205BB2002BFBDB0A4B9C68240AA4B20D4B7C
S1130D309847002E07D1012C07D9281C211C0A4BE7
S1130D409847051C01E00134E540281C70BDC046ED
S1130D50000C004011010000040C0040E1090000F7
S1130D60080C004051010000CD10000010B5041C17
S1130D70064B9847064B1C70064B59888022D201BB
S1130D800A435A80044B984710BDC0461101000025
S1130D90020C0040000C00405101000010B5041C7E
S1130DA00F4B98470F4B1C700F4B58880005000FD2
S1130DB059880E4A0A405A8059880D4A0A405A8076
S1130DC0191C8022D2014B881342FCD1064B01022C
S1130DD05888064A02400A435A80064B984710BD79
S1130DE011010000020C0040000C0040FFF0FFFF66
S1130DF0FFBFFFFF5101000010B50C78240204432B
S1130E00024B9847A4B2024B5C8010BD9D0D0000BC
S1130E10000C004010B5041C064B9847064B1C7090
S1130E20064B5C882405240F054B9847201C054B72
S1130E30984710BD11010000020C0040000C004056
S1130E4051010000E10C000030B5D378002B1ED115
S1130E501378802B04D01B0680246402234300E013
S1130E60002354780225AC430AD19478002C03D192
S1130E708024A402234302E0C024E402234341600B
S1130E805478013C012C04D8114C234001E041600A
S1130E9000230D042D0CA024E4052C431C43846280
S1130EA00D0CD02424062C431C438462D478002CDB
S1130EB00CD15C0305D59378012B01D1816100E04D
S1130EC041615378013B012B00D8816030BDC0469D
S1130ED0FFFFFBFF08B5031C0A1CC1090020002901
S1130EE003D15809C001044940181F210B400121B6
S1130EF09940024B984708BD00440041490E000048
S1130F007047C04608B5044B9847044B9847044BB8
S1130F109847044B984708BD4D0B00008101000021
S1130F20010F0000010F0000FEE7C04610B5194B89
S1130F30194A9A4203D0194B164A9A4204D3184BC1
S1130F40184A9A4210D31BE0174B14480330C01AB6
S1130F5080080130800000230E490F4AD458CC5039
S1130F6004338342FAD1EAE70E4B1A1D0C490331CC
S1130F70891A890889005218002102C39342FCD1BE
S1130F800A4B7F210A4A8A439A600A4B98470A4BC4
S1130F909847FEE7000000208C12000004000020A7
S1130FA050000020040000200400002000ED00E0B8
S1130FB000000000B11100006110000070B590B095
S1130FC08023DB05009300230193FF2268460281FE
S1130FD000228372C3729621890108910121242081
S1130FE06C4621542520215426216354272163541F
S1130FF00A932C2163542D21635405932382E376B1
S11310002276227762761323A376627780235B03AA
S113101003930E4B0C930E4B0D9301235B420E93E3
S11310200F930C4E0C4D0D4C301C291C6A46A047E6
S11310300028F9D1074B1A68D369002BFCD1116839
S113104002230B43136010B070BDC04602001600AB
S1131050020017004400002000140042CD050000E7
S1131060F0B5474680B486B0114B9847114B98476A
S113107002A9114B0A1C31CB31C2188810809B780D
S113108093700E480F220E4B98470C4880460D4F24
S1131090061C404669460631B8470028F9D16C461B
S11310A00634094D2188301CA8470028FAD1F0E7FE
S11310B0050F0000BD0F00005C120000440000207A
S11310C025090000B50800008D080000002934D06F
S11310D00123002210B488422CD301242407A14206
S11310E004D2814202D209011B01F8E7E400A142C3
S11310F004D2814202D249005B00F8E7884201D35E
S1131100401A1A434C08A04202D3001B5C08224335
S11311108C08A04202D3001B9C082243CC08A042A6
S113112002D3001BDC082243002803D01B0901D092
S11311300909E3E7101C10BC7047002801D0002007
S1131140C04307B4024802A14018029003BDC04640
S1131150190000000029F0D003B5FFF7B9FF0EBC59
S11311604243891A1847C0467047C0469C46030448
S1131170F0B51B0C17043F0C150C1E1C041C000CB2
S11311807E436B4347434543FB18300C1818874292
S113119002D980235B02ED18030CED1863465C430F
S11311A04A433604360CA118000480194919F0BDCD
S11311B070B50E4B0E4D0024ED1AAD101E1CAC4242
S11311C004D0A300F35898470134F8E700F04EF830
S11311D0084B094D0024ED1AAD101E1CAC4204D07E
S11311E0A300F35898470134F8E770BD7812000063
S11311F078120000781200007C12000000080042FF
S1131200000C00420010004200140042001800428A
S1131210001C0042F4090000500A0000500A0000BB
S1131220EE090000EE0900000A0A0000FA090000B5
S1131230100A00003E0A0000D80A0000380B000023
S1131240380B0000B80A0000CA0A0000E60A0000D1
S1131250BC0A0000F40A0000280B000048656C6C0E
S11312606F20576F726C64210D0A0000F8B5C046F8
S1131270F8BC08BC9E467047D9000000F8B5C046CB
S10F1280F8BC08BC9E467047B10000009A
S107128C0100000059
S9030F2DC0
