:10000000B82000203D110000391100003911000016
:1000100000000000000000000000000000000000E0
:100020000000000000000000000000003911000086
:10003000000000000000000039110000391100002C
:100040003911000039110000391100003911000088
:100050003911000039110000391100003911000078
:100060003911000039060000490600005906000059
:1000700069060000790600008906000039110000B9
:100080003911000039110000391100003911000048
:100090003911000039110000391100003911000038
:1000A0003911000039110000391100003911000028
:1000B00010B5064C2378002B07D1054B002B02D03E
:1000C000044800E000BF0123237010BD040000209D
:1000D000000000008C15000008B5084B002B03D071
:1000E0000748084900E000BF07480368002B03D019
:1000F000064B002B00D0984708BDC046000000000A
:100100008C150000080000208C1500000000000085
:100110000C4B1B68002B10D1EFF31083002B09D17F
:1001200072B6BFF35F8F0022074B1A700122074B94
:100130001A7002E00022054B1A70024B1A68013255
:100140001A607047200000200000002024000020DA
:10015000084B1A68013A1A601B68002B09D1064B3C
:100160001B78002B05D00122044B1A70BFF35F8F60
:1001700062B670472000002024000020000000200C
:10018000F0B583B001AC012565700027A77025701C
:100190003E20211C064EB0478022D205054B9A61B5
:1001A000277065700F20211CB04703B0F0BDC0461A
:1001B000B90100008044004100B583B001AB80224A
:1001C0001A700A785A704A789A708A78DA70191C0C
:1001D000014B984703B000BDE510000010B5031CAB
:1001E0004908402099420CD30024C91A601C80B2EF
:1001F0008B4201D8041CF8E74020FF2C01D8148062
:10020000002010BD00000000F0B55F4656464D4688
:100210004446F0B487B0061C0D1C049210AA107856
:10022000321C424340248A4200D9B3E0002B4BD118
:100230000021321C5E4CA04783462E1C0027002064
:100240000021002200233F24A4460125A846029055
:1002500003916146203903D440468840814605E039
:10026000202165464C1B4046E0408146414664469D
:10027000A1408A46101C191C80185941021C0B1CF5
:100280005D464C46254202D0424602430B1C9F422B
:100290000CD801D1964209D8921BBB415046029D11
:1002A00028434946039C2143029003916546013D42
:1002B000AC46CED2029803993C4B3B4A121A8B4172
:1002C000120C1B041A4362E00022012B5FD14F0F76
:1002D000B946CD00AB460021321C0023344CA04768
:1002E000061C0F1C00230125029603979A465046D0
:1002F000C0B2059000218846002200233F24271C1D
:10030000203F03D42E1CBE40019604E02020071B92
:10031000291CF94001912E1CA6400096101C191CA6
:1003200080185941021C0B1C5F463740BC46019E99
:100330004F463E4067463E4302D02A1C02430B1CF8
:10034000039898420BD802D10299914207D8029E95
:10035000039F921BBB41474600980743B846013CA8
:10036000CDD2414652468B1ADB08124CA34208D923
:10037000059A0132D2B205920126B2445746082F9F
:10038000B5D140240598082804D042031A43049CA0
:1003900022800024201C07B03CBC90469946A2460F
:1003A000AB46F0BDC046C0460000000001000000A2
:1003B00051140000FF1F000010B582B0041C0F4B49
:1003C0001B78002B01D000290DD001A90C7013203F
:1003D0000B4B984713200B4B9847084B5C7001223E
:1003E0001A70002007E0054B5A781D20141B621E6E
:1003F00094416442204002B010BDC0462800002055
:10040000091000007D0F0000444B984233D006D8FD
:10041000434B98420DD0434B98421BD06FE0424B68
:1004200098424AD0414B984258D0414B984266D1AD
:1004300032E0012965D0002904D0022906D0032921
:1004400006D001E03B4867E0002065E03A4863E001
:100450003A4861E0012956D0002904D0022906D08B
:10046000032906D001E0032056E0002054E0344880
:1004700052E0344850E0012947D0002904D0022935
:1004800006D0032906D001E02F4845E0002043E0D4
:100490002E4841E02E483FE0012938D0002904D001
:1004A000022906D0032906D001E02A4834E00020C2
:1004B00032E0294830E029482EE0012929D00029DE
:1004C00004D0022906D0032906D001E0244823E005
:1004D000002021E023481FE023481DE001291AD015
:1004E000002904D0022906D0032906D001E01F48C4
:1004F00012E0002010E01E480EE01E480CE0002034
:100500000AE01D4808E01D4806E01D4804E01D48BB
:1005100002E01D4800E01D487047C0460010004240
:1005200000080042000C004200180042001C00427B
:10053000001400420300040003000600030007004B
:1005400003001E0003001F000300080003000A0050
:1005500003000B000300100003001200030013004F
:1005600003000C0003000E0003000F000300160040
:100570000300180003001900030005000300010038
:10058000030009000300110003000D000300170021
:1005900070B586B00C4A6B4670CA70C332CA32C39B
:1005A000009E864206D001239A0069465258824234
:1005B00003D100E00023D8B203E00133062BF3D1CE
:1005C000002006B070BDC046F41400007047C0465D
:1005D000F0B50A4B1B78002B0CD1094F094E0A4D80
:1005E0000024DE515A1914600433182BF9D101226A
:1005F000024B1A708000024BC150F0BD2C0000204D
:1006000030000020CD0500006000002010B582B051
:10061000041C684605490622054B9847201C054BDB
:1006200098476B46185602B010BDC0460C15000026
:10063000E11400009105000008B5024B1B68002082
:10064000984708BD3000002008B5024B5B680120C8
:10065000984708BD3000002008B5024B9B68022077
:10066000984708BD3000002008B5024BDB68032026
:10067000984708BD3000002008B5024B1B690420D4
:10068000984708BD3000002008B5024B5B69052083
:10069000984708BD30000020F0B55F4656464D46ED
:1006A0004446F0B491B0051C0C1C161C2960081CB3
:1006B000AD4B9847021C23680520D90700D54BE1B4
:1006C00023681C209F0700D546E1A84B186A911C9F
:1006D00001278F40391C014319620FA92D27F35DB3
:1006E0000B701432D2B29046101CA14B9847404672
:1006F000A04B9847F05D00219F4B9847F37A6B71B0
:100700002423F35CAB712523F35CEB71F37E2B7236
:10071000337F6B7229688846081C934B98471430C6
:1007200000226B46DA84328A02928023DB019A42ED
:1007300021D08023DB019A4204D880239B019A4276
:1007400011D008E0C023DB01029F9F420FD080231D
:100750001B029F4203D01027069700270EE00327B5
:10076000069700270AE010270697012706E00827CA
:100770000697012702E008270697002731680391B2
:10078000F268914673690493317E8A462623F35CAE
:100790009B467368002B13D08022520593422ED1C2
:1007A0002723F35C002B2ED1376AC0B2734B9847D6
:1007B000011C381C6A462632714B9847031C1FE007
:1007C0002723F35C002B0AD0069A0092306AB16AA4
:1007D0006A4626323B1C6B4FB847031C10E0316A57
:1007E0000791C0B2654B9847011C069A0092079882
:1007F0006A4626323B1C634FB847031C00E00023C7
:10080000181E00D0A8E0737E002B02D0B37E4146B4
:100810008B732A68029FD369002BFCD102976B4629
:1008200026331B88424693814B46039F3B43049FDC
:100830003B4371680B43029F1F43524613021F4301
:1008400059464B071F432723F35C002B01D1042398
:100850001F43717E8902337F5B021943F27AB37AB8
:1008600013431943737F1B0219432423F35C5B0476
:1008700019432523F35C1B0419433389FF2B0BD049
:10088000F27E002A03D0A022D204174302E0802285
:1008900052041743194305E0F37E002B02D0802356
:1008A000DB041F432C23F35C002B03D1364B9B78D6
:1008B0009A0701D580231F432A68D369002BFCD1F6
:1008C000434659602A68D369002BFCD141460F602A
:1008D0000EAB80221A7000225A70DA709A70326B56
:1008E0000A92736B0B93B76B0C97F66B0D96002700
:1008F0000EAEF9B2BB000AAA9858002802D1201CFB
:10090000224A9047431C05D03070000CC0B2311C05
:100910001F4A90470137042FEBD10023EB602B6176
:100920006B61AB61EB612B62AB626B620022EB85AA
:10093000AB853023EA543123EA543223EA5433237B
:10094000EA542868084B9847041C1249124B9847F0
:10095000A400124BE550002011B03CBC90469946D3
:10096000A246AB46F0BDC046910500000004004021
:10097000091000007D0F0000B903000025100000E1
:10098000DD01000009020000002000410904000010
:10099000E5100000390A0000D105000060000020C9
:1009A00003688285416205213222815404229A75AE
:1009B000027A002A01D020229A75427A002A01D0B8
:1009C00008229A757047C046931C9B00C318596053
:1009D000012393401A1C3023C15C0A43C254704760
:1009E00010B51723002A11D0C48DA4B20523002C02
:1009F0000CD1C4791C23002C08D00368C285816205
:100A000005213322815401229A750023181C10BD40
:100A100010B51723002A0BD084791C23002C07D093
:100A2000848DA4B20523002C02D1024B98470023E9
:100A3000181C10BDA1090000F8B58000644BC55812
:100A40002C68E369002BFCD1237EA67D1E40312358
:100A5000EB5C3022AF5C1F40F10720D5EB8D9BB2E1
:100A6000002B1AD0AB6A1A78D2B2591CA9626979E4
:100A7000012904D1597809020A430233AB62D30534
:100A8000DB0D2385EB8D013B9BB2EB85002B06D163
:100A9000012323750223A37501E001232375B20707
:100AA00009D50223237500223323EA54FB0702D51C
:100AB000281CE968884772076AD5AB8D9BB2002B6A
:100AC00064D0638BDBB2190702D43F22134001E0EC
:100AD00037221340002B37D09A0707D51A2232232A
:100AE000EA54628B02231343638327E0590707D537
:100AF0001E223223EA54628B0423134363831DE0D6
:100B0000DA0707D513223223EA54628B01231343F9
:100B1000638313E0D90607D542223223EA54628B5D
:100B200010231343638309E020221A4206D0412296
:100B30003223EA54628B2023134363837A0727D539
:100B4000281C6B69984723E0228DD205D20DD3B2C1
:100B5000696A0B706B6A591C69626979012904D151
:100B6000120A5A706B6A01336B62AB8D013B9BB208
:100B7000AB85002B0CD10423237500223223EA54C9
:100B8000BA0705D5281C2B69984701E00423237573
:100B9000F10607D5102323752376FA0602D5281C03
:100BA000EB699847B10607D52023237523763A07CA
:100BB00002D5281CAB699847310707D50823237550
:100BC0002376BA0602D52B6A281C9847F8BDC04682
:100BD0006000002008B5082834D880001B4B1B5843
:100BE0009F468020000230E0194B18692DE0194B18
:100BF000186A8005800F184BC340181C25E0144B61
:100C0000586922E0124B1B68022018401DD0114980
:100C10001022CB681A42FCD00D4B1B685A0713D523
:100C200000200E4B98470A4B9B681B041B0C584333
:100C30000BE05023074AD35C00205A0705D5044B2C
:100C4000D86802E0002000E0054808BD1415000047
:100C5000480000200008004000127A002510000023
:100C6000006CDC0270B50C4B1C6A0178857840780A
:100C70000122104080014026B44304432A40D001A1
:100C800080229443221C02430320014009020348AE
:100C900002400A431A6270BD00080040FFFCFFFFDB
:100CA000082843D88000224B1B589F4600203EE076
:100CB000204B196A02220A431A62002037E01D4BBA
:100CC000996902220A439A61002030E0194B198A7F
:100CD00002220A431A82002029E0164B998A022236
:100CE0000A439A82002022E0134B196802220A4329
:100CF0001A601A68114B1A400E4B9A84191C102264
:100D0000CB681A42FCD00C4A91680A4BD9625168F0
:100D10009962126892B29A84002008E0054A44233E
:100D2000D05C02210143D154002000E0172070471D
:100D30003815000000080040480000207FFF000038
:100D400030B585B0C222D200194B9A60194B5A684F
:100D50001E218A435A6001236A4613700024164DEF
:100D6000E0B26946A8470134252CF9D103A8002434
:100D70004470012585700470104B98470620104B75
:100D80009847104B9847104B1C725C729C720195EF
:100D90006B465C7006236A4613701472547200200E
:100DA00069460A4B98470020094B984705B030BD6B
:100DB000000800400040004109100000650C0000E0
:100DC000A10C0000D50D000000040040F90D00004A
:100DD000AD0E0000064B996908220A439A61012270
:100DE000044B1A70191C0B781342FCD17047C04693
:100DF00000040040000C0040F8B5061C071C0D78EC
:100E00002D0205434B78002B02D08023DB021D43CB
:100E10004B7A002B02D080231B031D434C68012C0E
:100E200017D9631E1C420FD1022C06D902230022BF
:100E300001325B009C42FBD800E0002217023743DE
:100E400080235B031D4304E02702374380239B027A
:100E50001D430B7A002B02D080239B031D430F4AB6
:100E600053785BB2002BFBDB0D4B98470D4B1E708C
:100E70000A4A53785BB2002BFBDB084B9F601A1CBD
:100E800053785BB2002BFBDB044B59688022520283
:100E90000A4015435D60044B9847F8BD000C0040C4
:100EA00011010000080C00405101000010B5041CA5
:100EB0000B4A53785BB2002BFBDB0A4B98470A4B7B
:100EC0001C70074A53785BB2002BFBDB044B59685C
:100ED000802252020A435A60044B984710BDC04614
:100EE000000C004011010000040C00405101000002
:100EF00070B5041C1A4A53785BB2002BFBDB194B0C
:100F00009847194B1C70164A53785BB2002BFBDBD9
:100F1000134E7068C004C00E144B9847051C124B4A
:100F20001C707668F602F60F114B1C700C4A537851
:100F30005BB2002BFBDB0A4B9C68240AA4B20D4B6E
:100F40009847002E07D1012C07D9281C211C0A4BD9
:100F50009847051C01E00134E540281C70BDC046DF
:100F6000000C004011010000040C0040D50B0000F3
:100F7000080C004051010000B113000010B5041C22
:100F8000064B9847064B1C70064B59888022D201AD
:100F90000A435A80044B984710BDC0461101000017
:100FA000020C0040000C00405101000010B5041C70
:100FB0000F4B98470F4B1C700F4B58880005000FC4
:100FC00059880E4A0A405A8059880D4A0A405A8068
:100FD000191C8022D2014B881342FCD1064B01021E
:100FE0005888064A02400A435A80064B984710BD6B
:100FF00011010000020C0040000C0040FFF0FFFF58
:10100000FFBFFFFF5101000010B50C78240204431C
:10101000024B9847A4B2024B5C8010BDAD0F00009C
:10102000000C004010B5041C064B9847064B1C7082
:10103000064B5C882405240F054B9847201C054B64
:10104000984710BD11010000020C0040000C004048
:1010500051010000F10E000030B5D378002B1ED1F5
:101060001378802B04D01B0680246402234300E005
:10107000002354780225AC430AD19478002C03D184
:101080008024A402234302E0C024E40223434160FD
:101090005478013C012C04D8114C234001E04160FC
:1010A00000230D042D0CA024E4052C431C43846272
:1010B0000D0CD02424062C431C438462D478002CCD
:1010C0000CD15C0305D59378012B01D1816100E03F
:1010D00041615378013B012B00D8816030BDC0468F
:1010E000FFFFFBFF08B5031C0A1CC10900200029F3
:1010F00003D15809C001044940181F210B400121A8
:101100009940024B984708BD004400415910000027
:101110007047C04608B5044B9847044B9847044BAA
:101120009847044B984708BD410D0000810100001D
:101130001111000011110000FEE7C04670B5022138
:1011400090235B00284AD150284BD878032188434C
:1011500002221043D870DD780C24A54308200543F3
:10116000DD70234B9E7B3025AE43202535439D7398
:101170009D7BA54328439873987B884302439A73C9
:101180001C4B1D4A9A4203D01C4B1A4A9A4204D364
:101190001B4B1C4A9A4210D31BE01B4B17480330D1
:1011A000C01A80080130800000231249124AD45826
:1011B000CC5004338342FAD1EAE7124B1A1D10498E
:1011C0000331891A890889005218002102C3934209
:1011D000FCD10E4B7F210E4A8A439A600D4B9847F3
:1011E0000D4B9847FEE7C04600700041005000419B
:1011F00000480041000000208C1500000400002081
:10120000B4000020040000200400002000ED00E0F5
:1012100000000000951400003D1300008022D2055C
:10122000014BDA617047C0468044004108B503486D
:1012300003490522034B984708BDC04678000020AB
:10124000AC000020E109000070B590B08023DB0500
:10125000009300230193FF226846028100228372DB
:10126000C372962189010891012124206C462154E2
:101270002520215426216354272163540A932C21CD
:1012800063542D21635405932382E37622762277DB
:1012900062761323A376627780235B030393134B59
:1012A0000C93134B0D9301235B420E930F93114E3E
:1012B000114D124C301C291C6A46A0470028F9D158
:1012C0000C4D2C68201C0E4B98471F2318400123FF
:1012D0008340181C0B4B18602A68D369002BFCD183
:1012E000226802231343236010B070BD0200160071
:1012F0000200170078000020001400429906000048
:101300000D06000000E100E038B5084C201C08493B
:101310000022084DA847201C07490122A847312375
:10132000E15C03220A43E25438BDC0467800002045
:101330001D120000C90900002D12000070B584B014
:10134000124B9847124B9847124B98470122124B69
:101350001A70BFF35F8F62B66946104B6A4631CB95
:1013600031C2188810809B7893700D480F220D4B66
:1013700098470B4C0C4E0D4D201C311C0522A847E4
:10138000201C69460F22074B9847F5E7151100000E
:101390004912000009130000000000205C15000045
:1013A00078000020E1090000AC000020110A0000D4
:1013B000002934D00123002210B488422CD3012408
:1013C0002407A14204D2814202D209011B01F8E79D
:1013D000E400A14204D2814202D249005B00F8E756
:1013E000884201D3401A1A434C08A04202D3001B82
:1013F0005C0822438C08A04202D3001B9C082243B5
:10140000CC08A04202D3001BDC082243002803D0F2
:101410001B0901D00909E3E7101C10BC7047002824
:1014200001D00020C04307B4024802A14018029036
:1014300003BDC046190000000029F0D003B5FFF736
:10144000B9FF0EBC4243891A1847C0467047C046D0
:101450009C460304F0B51B0C17043F0C150C1E1C16
:10146000041C000C7E436B4347434543FB18300C80
:101470001818874202D980235B02ED18030CED187F
:1014800063465C434A433604360CA11800048019B5
:101490004919F0BD70B50E4B0E4D0024ED1AAD107C
:1014A0001E1CAC4204D0A300F35898470134F8E75F
:1014B00000F05CF8084B094D0024ED1AAD101E1C1D
:1014C000AC4204D0A300F35898470134F8E770BD4C
:1014D0007815000078150000781500007C150000D4
:1014E00010B50023934203D0CC5CC4540133F9E718
:1014F00010BD000000080042000C00420010004235
:101500000014004200180042001C0042090A0B0CA3
:101510000D0E0000E80B0000440C0000440C00001D
:10152000E20B0000E20B0000FE0B0000EE0B0000DF
:10153000040C0000320C0000CC0C00002C0D00004C
:101540002C0D0000AC0C0000BE0C0000DA0C0000FA
:10155000B00C0000E80C00001C0D000048656C6C2D
:101560006F20576F726C64210D0A0000F8B5C046F9
:10157000F8BC08BC9E467047D9000000F8B5C046CC
:0C158000F8BC08BC9E467047B10000009B
:04158C00010000005A
:040000030000113DAB
:00000001FF
